:020000040800F2
:10000000F00B0020890100083D160008E7110008E8
:10001000F1140008AF02000895220008000000005B
:10002000000000000000000000000000331F000876
:10003000DD02000800000000311F0008351F000825
:10004000A3010008A3010008A3010008A301000800
:10005000A3010008A3010008A3010008A3010008F0
:10006000A3010008A3010008A3010008A3010008E0
:10007000A3010008A3010008A3010008A3010008D0
:10008000A3010008A3010008A3010008A3010008C0
:10009000A3010008A3010008A3010008A3010008B0
:1000A000A3010008A3010008A3010008A3010008A0
:1000B000A3010008991F0008A3010008A30100087C
:1000C000A3010008A3010008A3010008A301000880
:1000D000A3010008A3010008A3010008A301000870
:1000E000A3010008A3010008A301000800F002F822
:1000F00000F03AF80AA090E8000C82448344AAF188
:100100000107DA4501D100F02FF8AFF2090EBAE885
:100110000F0013F0010F18BFFB1A43F0010318473B
:100120009C480000BC480000103A24BF78C878C141
:10013000FAD8520724BF30C830C144BF04680C60ED
:10014000704700000023002400250026103A28BF35
:1001500078C1FBD8520728BF30C148BF0B60704739
:100160001FB51FBD10B510BD00F06CF81146FFF7AC
:10017000F7FF02F0C5FC00F08AF803B4FFF7F2FFC6
:1001800003BC00F08DF8000009488047094800478B
:10019000FEE7FEE7FEE7FEE7FEE7FEE7FEE7FEE737
:1001A000FEE7FEE704480549054A064B7047000094
:1001B000971F0008ED000008F0050020F00B00205C
:1001C000F0070020F00700204FF0000200B51346B2
:1001D00094469646203922BFA0E80C50A0E80C5067
:1001E000B1F12001BFF4F7AF090728BFA0E80C5018
:1001F00048BF0CC05DF804EB890028BF40F8042B11
:1002000008BF704748BF20F8022B11F0804F18BF7D
:1002100000F8012B704770477047704710B500F029
:1002200009F8006810BD10B5044600F003F804603A
:1002300010BD0000004870478C0500200048704742
:100240008C0500207546FFF7F9FFAE4605006946AC
:10025000534620F00700854618B020B5FFF7A2FFEF
:10026000BDE820404FF000064FF000074FF00008B7
:100270004FF0000B21F00701AC46ACE8C009ACE838
:10028000C009ACE8C009ACE8C0098D46704710B59C
:100290000446AFF300802046BDE81040FFF76DBF75
:1002A00001491820ABBEFEE7260002007047FEE7BA
:1002B0000848016841F080710160074800214160F1
:1002C000016841F001010160406808B100207047F9
:1002D00001207047FCED00E0001000E070470000D6
:1002E00004494A68044B58434B689B1A8342FBD32A
:1002F00070470000001000E080380100044A516897
:1003000000EB8000000153685B1A8342FBD3704707
:10031000001000E02DE9F84FDFF8B8910024A9F1B2
:10032000040B23460F2709F1040AABF1040EC9E0C0
:100330000125A5402A40AA427DD1674ED1F804C0CC
:10034000ACEB0608B44532D014DCBCF1030F3AD054
:1003500009DCBCF1000F2AD0BCF1010F1CD0BCF1AC
:10036000020F31D11DE0BCF1110F17D0BCF1120FFB
:100370002AD119E0B8F5881F19D006DCB8F5803FFE
:1003800015D0B8F5801F1FD111E0B8F5001F0ED0B1
:10039000B8F5041F18D10AE0CB6815E0CB681B1D27
:1003A00012E0CB6808330FE0CB680C330CE08B68AD
:1003B0002BB1012B4FF0080303D0456104E0042367
:1003C00002E0056100E00023FF2A01D8064601E0B3
:1003D00000F104064FEA840501D9A5F12005D6F8FD
:1003E000008007FA05FC28EA0C0803FA05F548EA3C
:1003F0000508C6F800804D68ED0062D5374DAE693E
:1004000046F00106AE61AD6924F0030605F0010572
:100410000095334D06EB050CDCF80850A607360FA7
:1004200007FA06F825EA0805DFF8B880404503D149
:100430004FF0000817E044E0DFF8AC80404502D1FF
:100440004FF001080FE0DFF8A480404502D14FF0E3
:10045000020808E0DFF89880404502D14FF0030819
:1004600001E04FF0040808FA06F848EA0508CCF85D
:1004700008804D68D9F80060ED024D4601D516435D
:1004800000E096432E604D68DAF80060AD025546F4
:1004900001D5164300E096432E604D68DBF80060FE
:1004A000AD035D4601D5164300E096432E604D68CE
:1004B000DEF80060ED03754601D5164300E0964373
:1004C0002E60641C0D682A46E5407FF431AFBDE81C
:1004D000F88F0000080401400000111000100240D5
:1004E0000000014000080140000C014000100140E4
:1004F000001401408068084000D0012070470AB114
:10050000016170470904FBE70148806870470000FB
:1005100054000020024881680278114481607047CD
:1005200054000020074810B5016841F01001016037
:10053000032000F075F80F2000F006F800F024F812
:10054000002010BD0020024070B50D4D04464FF450
:100550007A712878B1FBF0F00A490968B1FBF0F034
:1005600000F0BCFA48B9102C07D200222146501ED8
:1005700000F036F800206C6070BD012070BD0000F6
:1005800054000020600000200C4808B5816941F04B
:1005900001018161816901F001010091C16941F0AE
:1005A0008051C161C06900F08050009004484168EA
:1005B00021F0E06141F00071416008BD001002408F
:1005C00000000140002809DB00F01F0201219140DA
:1005D0004009800000F1E020C0F8001170470000E1
:1005E000F0B40E4B1B680C46C3F30223C3F107059E
:1005F000042D00D90425191D072901D2002300E08C
:10060000DB1E012606FA05F1491E214099409E4055
:10061000761E16403143F0BC01F050BE0CED00E0F8
:10062000064900F0070208684FF6FF03184040EA49
:100630000220034A10430860704700000CED00E000
:100640000000FA052DE9F0470F46050061D0434E42
:10065000306800F00700B84209D2306820F0070087
:1006600038433060306800F00700B84251D1286844
:100670003B4C810712D5400703D5606840F4E06029
:1006800060602878000703D5606840F460506060BF
:100690006068A96820F0F000084360602878C0070F
:1006A00028D06868012810D02168022810D0890756
:1006B00000292EDA616821F0030101436160FFF730
:1006C00023FF804641F288390DE021688903EFE776
:1006D0008901EDE7FFF718FFA0EB0801494502D9B2
:1006E0000320BDE8F0876068696800F00C00B0EB9B
:1006F000810FEFD1306800F00700B8420BD93068A5
:1007000020F0070038433060306800F00700B8423E
:1007100001D00120E5E72878400705D56068E96841
:1007200020F4E060084360602878000706D5606820
:10073000296920F4605040EAC100606000F018F8B8
:100740006168084AC1F30311515CC840064908605A
:1007500006480068FFF7F8FE0020C2E700200240CC
:100760000010024080410008600000205800002076
:100770000E4A51680E4801F00C03042B11D0082BCF
:100780000FD10C48C1F38343C903C05C0AD551683B
:10079000084AC1F34041921E515C054A5043B0FBE8
:1007A000F1F07047044948437047000000100240D0
:1007B00000127A007041000800093D002DE9F84F51
:1007C000040070D02078C04DC00749D06868C0F3DD
:1007D0008100012807D06868C0F38100022809D190
:1007E0006868C00306D52868800339D5606800288A
:1007F000E7D035E06068B0F5803F0BD010B1B0F5C0
:10080000A02F11D0286820F480302860286820F4B8
:10081000802002E0286840F480302860606890B151
:10082000FFF772FE06460AE0286840F48020286040
:10083000F0E700BFFFF768FE801B642873D82868C4
:100840008003F7D50CE0FFF75FFE064605E000BF2A
:10085000FFF75AFE801B6428F0D828688003F7D47D
:1008600020789A4E80074FF001094FF0000839D5E3
:10087000686810F00C0F07D06868C0F38100022888
:1008800009D16868C00306D42868800714D5206998
:10089000012808D110E02069B0B1C6F80090FFF738
:1008A00033FE074605E00AE1FFF72EFEC01B0228D3
:1008B000C4D828688007F7D52868616920F0F80057
:1008C00040EAC10028600DE0C6F80080FFF71CFE7A
:1008D000074604E0FFF718FEC01B022823D828684B
:1008E0008007F7D4207800072CD57948A169D9B1C1
:1008F000C0F80090FFF708FE074604E0FFF704FE8B
:10090000C01B02280FD8686A8007F7D571484FF4DA
:10091000FA510068B0FBF1F0009000BF0098411E52
:100920000091FAD20EE080E0C0F80080FFF7ECFD05
:10093000074604E0FFF7E8FDC01B022875D8686A87
:100940008007F7D42078400760D5E8690027C00009
:1009500008D4E86940F08050E861E869012700F0B8
:10096000805000905C480168C90513D40168834633
:1009700041F480710160FFF7C7FD824606E000BFC9
:10098000FFF7C2FDA0EB0A0064284ED8DBF8000098
:10099000C005F5D5E06801280AD008B1052813D0B4
:1009A000286A20F001002862286A20F0040002E092
:1009B000286A40F001002862E06841F2883B98B163
:1009C000FFF7A2FD82460BE0286A40F0040028628F
:1009D000EEE700BFFFF798FDA0EB0A0159455AD892
:1009E000286A8007F6D50CE0FFF78EFD824605E009
:1009F000FFF78AFDA0EB0A0159454CD8286A800709
:100A0000F6D41FB1E86920F08050E861E06988B34E
:100A10006968C1F38101022944D00228C6F86080C8
:100A200004D0FFF771FD044638E034E0FFF76CFDB9
:100A3000074604E0FFF768FDC01B02282BD8286892
:100A40008001F7D4206AB0F5803F05D16868A168BD
:100A500020F4003008436860D4E90801084369685D
:100A600021F4741108436860C6F86090FFF74CFDEC
:100A7000044606E025E000BFFFF746FD001B022804
:100A800009D828688001F7D51BE000BFFFF73CFDBF
:100A9000001B022802D90320BDE8F88F28688001D6
:100AA000F4D40EE00128F7D06868226A00F480319F
:100AB000914204D1616A00F47010884201D0012093
:100AC000EAE70020E8E70000001002400000424290
:100AD00080044242600000200070004010B5401EBB
:100AE000B0F1807F01D3012010BD4FF0E0246061A0
:100AF0000F21601701F0E2FB0020A06107202061B8
:100B0000002010BD7047704770B590F83C20012A56
:100B100026D0012480F83C40022280F83D20036862
:100B20005A689D6822F070060A6832435A600D4B7D
:100B300002689A4208D0B2F1804F05D00A4B9A421F
:100B400002D00A4B9A4204D1496825F08003194328
:100B5000916080F83D40002180F83C10084670BD4F
:100B6000022070BD002C014000040040000800403D
:100B700010B5040003D094F83D0010B107E0012047
:100B800010BD002084F83C00204600F01FF8022031
:100B900084F83D00211D206801F004FA012084F84A
:100BA000460084F83E0084F83F0084F8400084F852
:100BB000410084F8420084F8430084F8440084F83B
:100BC000450084F83D00002010BD000008B5016814
:100BD0001048B1F1804F14D00F4A914219D1C16928
:100BE00041F00201C161C069002200F002000090E2
:100BF00011461D20FFF7F4FCBDE808401D20FFF75B
:100C0000E1BCC16941F00101C161C06900F00100AE
:100C1000009008BD001002400004004090F83D1014
:100C2000012901D001207047022180F83D100068A1
:100C30000B49884208D0B0F1804F05D0094988425D
:100C400002D00949884204D1816801F007010629D0
:100C500003D0016841F001010160002070470000ED
:100C6000002C0140000400400008004090F83D10B6
:100C7000012901D001207047022180F83D10016850
:100C8000CA6842F00102CA6000680B49884208D075
:100C9000B0F1804F05D00949884202D00849884206
:100CA00004D1816801F00701062903D0016841F0F1
:100CB0000101016000207047002C01400004004049
:100CC0000008004070B5044690F83C00002501285B
:100CD00017D0012684F83C60022084F83D0020688B
:100CE000826822F0770222F47F42826008685028EE
:100CF00038D00DDC20284FD005DC90B3102811D15E
:100D00004AE0022070BD302846D040280AD13BE09E
:100D100060282FD070280DD0B0F5805F03D0B0F5DB
:100D2000005F12D0012584F83D60002084F83C006B
:100D3000284670BDCB68D1E90121206801F07BF91C
:100D40002068816841F0770109E0CB68D1E9012191
:100D5000206801F070F92068816841F48041816069
:100D6000E1E719E0CA684968206801F019FA5021E2
:100D7000206806E0CA684968206801F022FA60210C
:100D8000206801F062F9CEE7CA684968206801F07E
:100D900007FA40212068F4E7226801461046F0E790
:100DA00070472DE9F04104460068C66805694FF0B8
:100DB0000007A90713D5B10711D5F91E016101205C
:100DC0002077206880698007204602D0FFF7E8FF7F
:100DD00004E000F0A3F8204600F035F92777680713
:100DE00016D5700714D521686FF004000861022041
:100DF00020772068806910F4407F204602D0FFF7FA
:100E0000CFFF04E000F08AF8204600F01CF92777B5
:100E1000280715D5300713D521686FF00800086141
:100E2000042020772068C0698007204602D0FFF7A1
:100E3000B7FF04E000F072F8204600F004F92777CD
:100E4000E80616D5F00614D521686FF01000086189
:100E5000082020772068C06910F4407F204602D027
:100E6000FFF79EFF04E000F059F8204600F0EBF891
:100E70002777E80708D0F00706D021686FF0010057
:100E80000861204600F02EF9280608D5300606D560
:100E900021686FF0800008612046FFF733FE680686
:100EA00008D5700606D521686FF04000086120461D
:100EB00000F098F9A8060AD5B00608D521686FF0A9
:100EC000200008612046BDE8F041FFF71CBEBDE8E8
:100ED000F081000000B585B00021009101910291E0
:100EE00003910068B0F1804F11D10A48816941F047
:100EF000040181618069694600F0040004900F20BC
:100F000000900220019003900348FFF703FA05B018
:100F100000BD00000010024000080140704770B59D
:100F2000044690F83C0000260D4601280FD0012011
:100F300084F83C006AB1042A1DD0082A2FD00C2A5C
:100F40003FD00126002084F83C00304670BD0220CE
:100F500070BD206801F082F82068816941F00801C5
:100F600081612068816921F00401816120688169C3
:100F70002A69114311E0206801F098F8206881691E
:100F800041F4006181612068816921F4806181619F
:100F9000206881692A6941EA02218161D2E72068DB
:100FA00001F0B0F82068C16941F00801C161206812
:100FB000C16921F00401C1612068C1692A69114336
:100FC00011E0206801F0CAF82068C16941F40061AD
:100FD000C1612068C16921F48061C1612068C16973
:100FE0002A6941EA0221C161ACE710B5040003D0CF
:100FF00094F83D0010B107E0012010BD002084F8F6
:101000003C00204600F01EF8022084F83D00211D1F
:10101000206800F0C7FF012084F8460084F83E00F5
:1010200084F83F0084F8400084F8410084F84200CE
:1010300084F8430084F8440084F8450084F83D00B7
:10104000002010BD7047704710B50446022249B118
:1010500004290ED0082913D094F84100012816D095
:10106000012010BD94F83E000128F9D184F83E20FB
:101070000FE094F83F000128F2D184F83F2008E007
:1010800094F840000128EBD184F8402001E084F876
:1010900041200122206800F0C1FF0F4920688842EA
:1010A00003D1426C42F4004242642068884208D076
:1010B000B0F1804F05D00949884202D008498842E2
:1010C00004D1816801F00701062903D0016841F0CD
:1010D00001010160002010BD002C0140000400400F
:1010E000000800402DE9FE4300683549884265D17B
:1010F00000F068FBDFF8CC80012853D1A8F11B0079
:10110000441ECDE90040C31D1A1D2F48211D01F0CA
:101110006BF8606802F04AFC032708250226009756
:10112000CDE9016502460B460021402000F074FD28
:10113000E06802F03BFC0097CDE9016502460B46F2
:101140001021402000F068FDA06802F02FFC0097FD
:10115000CDE9016502460B462021402000F05CFDF0
:101160001A481B491B4B0068C8F804000968C8F8F6
:101170000C101C68184DC8F8084098F80130CDE9EB
:10118000003598F80030224600F076FE00F072FB41
:101190001249024602230870062000903821702070
:1011A00000F0F8FD0E480168491C0160032905D1D3
:1011B00098F80010012901D100210160BDE8FE83EB
:1011C00000040040700100207A0000201C00002074
:1011D0002000002018000020720000205000002095
:1011E000640000207047FEE72DE9F0470746DDE97F
:1011F000089A1D4690460E463B2000F05EF80446D5
:101200003C2000F05AF840EA042038803D2000F0ED
:1012100054F804463E2000F050F840EA04203080A4
:101220003F2000F04AF80446402000F046F840EA2B
:101230000420A8F80000432000F03FF804464420B2
:1012400000F03BF840EA04202880452000F035F803
:101250000446462000F031F840EA0420A9F80000D6
:10126000472000F02AF80446482000F026F840EA1B
:101270000420AAF80000BDE8F08710B500F03AF9A4
:1012800001216B2000F038F800216C2000F034F8C8
:101290000921192000F030F806211A2000F02CF85E
:1012A00018211B2000F028F818211C2000F024F839
:1012B000BDE810406420FFF713B810B5044600F0F5
:1012C00085F9D02000F06EF900F038F9204600F0E2
:1012D00069F900F033F900F079F9D12000F062F9F2
:1012E00000F02CF900F039F90446012000F04FF924
:1012F00000F07BF9204610BD70B50D46044600F0A5
:1013000065F9D02000F04EF900F018F9204600F001
:1013100049F900F013F9284600F044F900F00EF9FD
:10132000BDE8704000F061B92DE9F04186B00024BD
:1013300020480094019402940394816941F02001B3
:101340008161816901F020010491816941F004010A
:101350008161816901F004010491816941F0080112
:1013600081618069144F00F0080004900022F02190
:101370003846FFF7C4F8DFF844800022C321404616
:10138000FFF7BDF8F02001250226CDE90005CDE9E3
:10139000024669463846FEF7BDFFC320CDE9000589
:1013A000CDE9024669464046FEF7B4FF06B0BDE807
:1013B000F08100000010024000080140000C0140D4
:1013C00010B58EB000240794089409940A940B94E5
:1013D0001C2168460C94FEF7F7FE2A484FF0804126
:1013E00001604721C0E9011440F2E731C0E903146C
:1013F00080218161FFF7BCFB08B172B6FEE74FF4B4
:101400008050079007A91F48FFF75CFC08B172B62F
:10141000FEE71C48FFF7E9FD08B172B6FEE70B9442
:101420000BA918480C94FFF76FFB08B172B6FEE7E2
:101430006020CDE90004029400226946114804941A
:10144000FFF76DFD08B172B6FEE7042269460D484C
:10145000FFF765FD08B172B6FEE708226946094844
:10146000FFF75DFD08B172B6FEE70C22694605483C
:10147000FFF755FD08B172B6FEE70248FFF72AFDF7
:101480000EB010BDC400002010B586B0002417486F
:101490000094019402940394049413490594016008
:1014A0004721C0E9011442F20F71C0E90314802101
:1014B0008161FFF75DFB08B172B6FEE74FF4805023
:1014C000009069460948FFF7FDFB08B172B6FEE7D8
:1014D000049404A905480594FFF716FB002801D0E1
:1014E00072B6FEE706B010BD000400400C010020FB
:1014F000FEE700001FB50020029040200090112060
:1015000001900320094C039069462046FEF702FF34
:101510008020009069462046FEF7FCFE012000F086
:1015200071F8012000F07CF81FBD0000000C0140A4
:1015300080210148FEF7DEBF000C014010B50120FC
:1015400000F06EF8012000F05DF8FFF7F1FF0446AF
:10155000002000F057F8204610BD70B5002501208E
:1015600000F05EF800248026012000F04BF8FFF721
:10157000DFFF012802D126FA04F00543002000F025
:1015800041F8641CE4B2082CEED3284670BD10B5B7
:1015900000F046F8012000F035F8BDE810400020CA
:1015A00000F030B870B500240546802626FA04F015
:1015B000284000F035F8012000F024F8002000F069
:1015C00021F8641CE4B2082CF0D370BD10B50120E2
:1015D00000F026F8012000F015F8002000F020F8B7
:1015E000BDE81040002000F00DB810B5002000F05C
:1015F00017F8012000F006F8BDE81040012000F0C7
:101600000FB8000010B5024640210448FEF777FFEE
:10161000BDE810400A20FEF771BE0000000C01403A
:1016200010B5024680210448FEF769FFBDE810406E
:101630000A20FEF763BE0000000C0140FEE710B573
:10164000002000F073F9E22000F0F6F8BDE8104049
:10165000012000F06BB910B5002000F067F9E1201F
:1016600000F0EAF8BDE81040012000F05FB900008A
:1016700070B586B0154800240294816941F00801D4
:1016800081618069012500F0080004904AF2180089
:10169000CDE9000503200E4E039069463046FEF763
:1016A00039FEA8038DE8310069463046FEF732FE68
:1016B000002000F031F9012000F038F9002000F09E
:1016C0004BF9002000F03CF906B070BD001002405C
:1016D000000C014010B5FFF7CBFF0821002000F0FF
:1016E00047F93F21012000F043F90121022000F0D9
:1016F0003FF90321084600F03BF90321042000F0E4
:1017000037F90221052000F033F90E21062000F000
:101710002FF90821112000F02BF9052207490A2092
:1017200000F038F9FFF797FFFFF789FF70210720D6
:1017300000F01EF9BDE8104000F06AB86D0000200E
:1017400010B54FF480410348FEF7D4FE012800D0C5
:10175000002010BD000C014010B50446002000F030
:10176000E5F8204600F068F8FF2000F065F8044630
:10177000012000F0DBF8204610BD70B506460D468E
:10178000002000F0D3F8612000F056F8002405E0B6
:10179000FF2000F051F83055641CE4B2AC42F7D39E
:1017A000BDE87040012000F0C1B810B5002000F085
:1017B000BDF8FF2000F040F80446012000F0B6F824
:1017C000204610BD10B5FFF7F0FF04460020FFF7DC
:1017D000C3FF800701D4032412E0C4F301100328DF
:1017E0000DD060060FD5012408210848FFF7C5FF7A
:1017F0004021072000F0BCF8FFF721FF04E002249D
:10180000FFF768FF00E00024204610BD7A000020AA
:1018100010B5002000F080F80020FFF79DFFFF28A2
:1018200009D040F00301002000F0A2F8BDE810400C
:10183000012000F071B810BD70B5044600252006E7
:1018400001D5012000E0002000F07AF86006040EC7
:10185000012000F081F8FFF773FF08B144F00104A4
:10186000002000F079F86D1CEDB2082DE7D320467A
:1018700070BD000010B505221B49102000F08AF849
:10188000052219490A2000F085F8174808210A3076
:1018900000F099F800F02AF842F21074FFF785FF83
:1018A000641E07D0C0F30111032905D0C10607D576
:1018B000022402E0042400E00324FFF70BFF02E00F
:1018C0008006EBD501243021072000F051F8FFF706
:1018D000C2FE05490522491D0A2000F05BF8FFF70A
:1018E00097FF204610BD00006800002010B50020C2
:1018F00000F012F80020FFF72FFFFF280BD020F098
:10190000010040F00201002000F032F8BDE8104074
:10191000012000F001B810BD08B1012200E0002252
:1019200008210148FEF7EBBD000C014008B101227F
:1019300000E0002210210148FEF7E1BD000C01404B
:1019400008B1012200E000224FF400410148FEF7F7
:10195000D6BD0000000C014008B1012200E00022C9
:101960004FF400510148FEF7CABD0000000C0140D1
:1019700070B504460D460020FFF7D8FF44F0200064
:10198000FFF75AFF2846FFF757FFBDE870400120D8
:10199000FFF7CCBF70B5044615460E460020FFF792
:1019A000C5FF44F02000FFF747FF002404E0305D4E
:1019B000FFF742FF641CE4B2AC42F8D3BDE87040CC
:1019C0000120FFF7B3BF70B506460D460020FFF7B4
:1019D000ADFFA020FFF730FF002404E0305DFFF7EB
:1019E0002BFF641CE4B2AC42F8D3BDE87040012088
:1019F000FFF79CBF10B50021074C0A46002004EBFE
:101A0000C1131A54401CC0B28028FAD3491CC9B271
:101A10000829F3D310BD00008C010020F0B50B4461
:101A200024E0044685181DE07F2C19D8002917DB17
:101A30003F2915DCCE1701EB56764FEAE60C0D4F29
:101A400026F0070607EBCC172744A1EB060E97F804
:101A500000C0012606FA0EF62CEA060C87F800C034
:101A6000641C24B2A542DFDC491C09B28B42D8DCDD
:101A7000F0BD00008C01002010B500204FF47A72F8
:101A80000021491C9142FCD3401C9042F8D3012014
:101A900000F0B8F9BDE81040012000F0BBB970B506
:101AA00000240646802525FA04F0304000D00120AD
:101AB00000F0B0F9012000F0A5F9002000F0A2F933
:101AC000641CE4B2082CEED3012000F09BF9BDE8C1
:101AD0007040002000F096B910B5012000F09AF98E
:101AE000012000F08FF9002000F094F9BDE81040CB
:101AF000002000F087B910B5002000F08BF901201C
:101B000000F080F9BDE81040012000F083B910B565
:101B1000FFF7B2FFAE2000F085F9D52000F082F982
:101B2000802000F07FF9A82000F07CF93F2000F031
:101B300079F9D32000F076F9002000F073F9402005
:101B400000F070F9A12000F06DF9C82000F06AF9EA
:101B5000DA2000F067F9122000F064F9812000F02B
:101B600061F9CF2000F05EF9D92000F05BF9F12097
:101B700000F058F9DB2000F055F9302000F052F960
:101B8000A42000F04FF9A62000F04CF98D2000F0C1
:101B900049F9142000F046F9AF2000F043F9FFF7AF
:101BA00029FFBDE8104000F019B90246012000E00D
:101BB0005043491EFCD2704710B50C4640F0B000AF
:101BC00000F030F9102040EA141000F02BF904F076
:101BD0000F00BDE8104000F025B9000008B5082B43
:101BE0000DD0062B0AD10A4B02EB420203EB420254
:101BF000C03A00920823062200F06EF808BD054B9B
:101C000003EB0212A2F50072102300920822F3E700
:101C100080470008904100082DE9FF5F82B014461C
:101C20001D46DDE911B60746002213462046294627
:101C3000DDF8408001F034FD334605D82B223846CC
:101C40000399FFF7CBFF06E02D2238460399FFF7F3
:101C5000C5FF85F000452046294601F0A7FB8246D6
:101C600001F0D1FB22462B4601F0AAFD05460C46A9
:101C700059460A20FFF799FF814601F0C4FB2A4626
:101C8000234601F00FFC00F0EDFF01F08FFBB0FBED
:101C9000F9F1044601EB0A02B81900B24346009676
:101CA000039900F077F808F1010000FB067000B21C
:101CB00033462E220399FFF791FF08F1020000FB43
:101CC000067000B25B4622460096039900F062F867
:101CD00006B0BDE8F09F00002DE9F04F1F46164604
:101CE0000D4682460024FFF799FE7F1EF81707EB8A
:101CF00050700121DFF898B001EBE00743E00020CD
:101D00003DE000BF0AEB00037F2B36D8E91705EB57
:101D10005171CA1021F00701691A002D03DA521E11
:101D2000083112B209B202EB0409B9F1070F0ED85B
:101D3000099A04FB06F802440BEBC91E18F80220AE
:101D40001EF803C08A404CEA020C0EF803C009F1E9
:101D50000102072A11D80BEBC91202EB0308099AFA
:101D600004FB06FC024498F880301CF80220C1F104
:101D70000801CA40134388F88030401CC0B2B0420A
:101D8000C0D3641CE4B2A742B9DCBDE8F08F000008
:101D90008C0100202DE9F04700241D4690468A461C
:101DA00081460A27089E14E0291B0A20491EFFF7D6
:101DB000FCFEB8FBF0F0B0FBF7F107FB110204FBEF
:101DC000069000B2334651463032FFF707FF641CDD
:101DD000E4B2AC42E8D3BDE8F087000070B5084D2E
:101DE000002400212046FFF7E7FE05EBC410802108
:101DF00000F029F8641CE4B2082CF2D370BD000096
:101E00008C010020024610210148FEF778BB00003B
:101E100000080140024620210148FEF770BB000087
:101E20000008014010B50446FFF756FE7820FFF782
:101E300036FE0020FFF733FE2046FFF730FEBDE8F8
:101E40001040FFF758BE70B50D460646FFF744FE3A
:101E50007820FFF724FE4020FFF721FE002404E055
:101E6000305DFFF71CFE641CE4B2AC42F8D3BDE861
:101E70007040FFF740BE00002DE9F05F294DDDE91D
:101E80000AC7294CA84201D9284602E0A04200DD39
:101E90002046A94201D9294602E0A14200DD21469F
:101EA0000E46AA4201D92C4602E0A24200DC1446AA
:101EB000092B00D909239846BCF1640F01D94FF0D2
:101EC000640CDFF868A0E146514601F00DFF4FF0C9
:101ED0007C5B594601F096FD01F0BEFE0546514679
:101EE000304601F001FF594601F08CFD01F0B4FECF
:101EF00006465146204601F0F7FE594601F082FDA4
:101F000001F0AAFE3D70290A7970BE70310AF9709D
:101F10003871000A787187F8068087F80790BDE865
:101F2000F09F0000000033C3000033430000204155
:101F300070477047FEF7EEBA30B58FB0282168467B
:101F4000FEF742F914210AA8FEF73EF90121080420
:101F5000CDE900100024029402250491CDE9075038
:101F60004FF4E01009906846FEF728FC08B172B6FD
:101F7000FEE70F20CDE90A054FF48060CDE90C4063
:101F800002210AA80E94FEF75DFB002801D072B66C
:101F9000FEE70FB030BD70470148FEF702BF0000FA
:101FA0000C010020F0B50268194B1A4C1A4D4FF085
:101FB0008047984205D0B84203D0A04201D0A84241
:101FC00003D122F070064A683243984205D0B842E5
:101FD00003D0A04201D0A84203D122F44074CA68C1
:101FE00022434C6922F08002224302608A68C26266
:101FF0000A688262984201D1096901630121416145
:102000000169C90703D0016921F001010161F0BD37
:10201000002C0140000400400008004010B501F011
:102020001F030121046A99408C430462016A9A40AB
:102030001143016210BD10B5846842EA032224F402
:102040007F440A432243826010BD826822F07002FE
:102050000A4342F0070181607047000030B5036A0F
:10206000026A22F0010202624268846924F0730568
:102070000C682C4323F002058B682B430A4DA842C1
:102080000BD123F00805CB6822F440722B434D6935
:1020900023F0040315438A692A4342608461496836
:1020A0004163036230BD0000002C014030B5026A7C
:1020B000036A23F010030362436884690D6824F403
:1020C000E64444EA05248D6822F0200242EA051223
:1020D0000B4DA8420ED1CD6822F0800242EA0512D3
:1020E0004D6923F4406343EA85038D6922F0400281
:1020F00043EA85034360846149688163026230BDBD
:10210000002C014030B5036A026A22F48072026238
:102110004268C46923F4007324F073050C682C43EF
:102120008D6843EA05230C4DA8420ED1CD6823F4F7
:10213000006343EA05234D6922F4405242EA051246
:102140008D6923F4806342EA05124260C4614968E4
:10215000C163036230BD0000002C014030B5046A49
:10216000026A22F4805202624268C3690D6823F455
:10217000E64343EA05238D6824F4005444EA053419
:10218000064DA84204D14D6922F4804242EA8512EC
:102190004260C36149680164046230BD002C0140A3
:1021A00010B5036A046A24F001040462846924F00F
:1021B000F00444EA021423F00A020A438461026232
:1021C00010BD10B5036A046A24F010040462846927
:1021D00023F0A00324F4704444EA023243EA0111DC
:1021E0008261016210BD00002DE9F05F04461D46CA
:1021F00016460F46B0F90000B4F90280B4F9049015
:10220000DDF828B001F044FDDFF87CA0514601F074
:1022100061FC3860404601F03BFD514601F05AFC3C
:102220003060484601F034FD514601F053FC28600F
:10223000164A39681648914201D9114602E0814296
:1022400000DD014639603168914201D9114602E052
:10225000814200DD014631602968914201D9104672
:1022600002E0814200DC08462860A079092800D9F4
:1022700009208BF80000E079642800D964200B99CC
:102280000870BDE8F09F000000002041000033C34B
:1022900000003343FEE74100080218BF04200A0E85
:1022A00018BF40F001004FF07F4232EA010108BF41
:1022B00040F00200012808BF052070470907090EF9
:1022C000002804DB00F1E02080F80014704700F0E3
:1022D0000F0000F1E02080F8141D7047012101F08B
:1022E00008BF01F08FBB0021084601F0F3BB6FF07F
:1022F0005E01080701F0FDBE2DE9F04104464FF0F4
:102300000E4000EB4400B0F1506F204655D84FF01E
:10231000FC41B1EB440F1CD224F000404FF07E5141
:1023200001F0AEFD4FF0FF3101F0E3FE054600F095
:10233000E3FC14F0004F1DBF2F4F304E80F00040E3
:102340002F4F08BF2F4E4FF0404101F0CDFC044607
:1023500005E000273E46014601F0C6FC05462A4935
:10236000284601F0C1FC294901F04CFB294601F047
:10237000BBFC274901F046FB294601F0B5FC254985
:1023800001F040FB294601F0AFFC234901F03AFB84
:1023900080462946204601F0A7FC414601F0A4FCF6
:1023A00005463146204601F02DFB294601F02AFB67
:1023B0003946BDE8F04101F025BB4FF0E441B1EBF7
:1023C000440F08D9FFF767FF042808BFFFF78FFF06
:1023D0002046BDE8F0814FF07F41B1EB440F03D2BE
:1023E000BDE8F041FFF77ABF0120FDF71CFFBDE813
:1023F000F041FFF778BF00000000C9BF22AAFDB975
:102400000000C93F22AAFD3924FE1C3DC78AD83CE2
:102410001E67383D1B93993DAFAA2A3E2DE9F04730
:102420004FF0684202EB40030C460546B3F1654F9E
:102430003CBF02EB4102B2F1654F7CD2C0F3C753FF
:10244000C1F3C7529A1A1B2A06DD10F0004F14BFC1
:1024500076487748BDE8F08712F11A0F17DA11F0C5
:10246000004F06D010F0004F0CBF72487248BDE814
:10247000F0872146284601F02DFB0446FFF70BFFAD
:10248000042808BFFFF733FF2046BDE8F08742006D
:10249000B2EB410F25D910F0004F19BF674F684EBE
:1024A000684F694E224685F0004415460A4680F082
:1024B000004110460A1A5200B2F1807F40D24840D3
:1024C0006249DFF88CA110F0004F18D04FF03F4860
:1024D000384601F067FD07465146304601F062FD7F
:1024E00017E011F0004F04BF00263746E2D010F08D
:1024F000004F19BF574F584E584F594EDAE74FF01B
:102500007C58384601F07EFA07465146304601F0C5
:1025100079FA06464146284601F0E6FB214601F0DD
:1025200071FA82462146404601F0DEFB294601F061
:10253000A7FC514600E037E001F0CCFA044604E085
:102540002146284601F0C6FA0446014601F0CCFBBC
:102550008046444901F0C8FB434901F053FA414623
:1025600001F0C2FB414901F04DFA414601F0BCFBCC
:102570003F4901F047FA414601F0B6FB3D4901F001
:1025800041FA05464146204601F0AEFB294601F0DE
:10259000ABFB314601F036FA214601F033FA3946F9
:1025A000BDE8F04701F02EBA4FF07F42B2EB400F8A
:1025B00028BFB2EB410F03D2BDE8F047FFF791BE51
:1025C00040EA01035B0008BF44F0FF410AD0B2EBD0
:1025D000400F08BFB2EB410F06D125F0804024F038
:1025E000804105460C4629E7B2EB400F12BF5FEA77
:1025F000410245F0FF4004F000413FF41FAF4A00A4
:1026000092EA40033FF51AAF002AACBF4FF09F4655
:102610004FF03E56314601F067FB054631462046F5
:1026200001F062FB04462846214607E7DB0FC9BFDD
:10263000DB0FC93FDB0F4940DB0F49C00000C9BFBA
:1026400022AAFDB90000C93F22AAFD390060ED3E73
:10265000C30ACE37000049C022AA7DBA0000494013
:1026600022AA7D3A2DAD65BD8FB8D53D0FB511BEFF
:1026700061C84C3EA8AAAABE10B501464FF07E50D4
:1026800001F028FA0149886110BD00008400002093
:102690002DE9F0412E4C21690F46384601F024FB0C
:1026A000E16805468846404601F01EFB4FF07C5627
:1026B000314601F0E5FB294601F074FC0546384639
:1026C000616901F011FB07464146A06801F00CFB6F
:1026D000394601F097F92946FFF7A0FEE06121692C
:1026E000A06801F001FB05466169E06801F0FCFAB1
:1026F000294601F057FCB10101F0F6FAFFF7FCFDA5
:10270000206261698846404601F0EEFA216905467B
:102710000F46384601F0E8FA314601F0B1FB294690
:1027200001F040FC05464146A06801F0DDFA06468E
:102730003946E06801F0D8FA314601F063F92946DC
:10274000FFF76CFE606201202070BDE8F0810000A0
:102750008400002070B500F07FF8104D104C2969FE
:10276000206801F01FFC20606969606801F01AFCB4
:102770006060A969A06801F015FCA060E969E068E3
:1027800001F010FCE060296A206901F00BFC206177
:10279000696A606901F006FC606170BD2800002074
:1027A000AC0000202DE9F047264DDFF89C90DFF8C3
:1027B0009CA0274C002600BF00F04EF82968206935
:1027C00001F020F920616968606901F01BF960611E
:1027D000A86801F0EBF84A46534600F0FDFF0746B3
:1027E0008846A06901F0E2F83A46434600F02AFD27
:1027F00000F0F6FCA061E968E06901F003F9E0612E
:102800002969206A01F0FEF820626969606A01F0B6
:10281000F9F860620A20FDF763FD761CF6B2642EBB
:10282000CAD30C4F002500BF04EB8506394630693A
:1028300001F050F96D1CEDB23061062DF4D3BDE806
:10284000F0870000AC00002014AE47E17A942340EA
:10285000280000200000C8422DE9FC5F6D49881E59
:10286000CDE90001831E021F811F0838FEF7BCFC62
:1028700068480A38B0F9000001F00AFA6FF00E015A
:1028800001F037FC042101F034FC01F08FF8624ABA
:10289000624B00F007FE624E4FF033352A46334656
:1028A00000F000FEDFF87CB15F4B5A4600F0FAFD05
:1028B00000F096FC5D4C206056480A38B0F90200E2
:1028C00001F0E6F96FF00E0101F013FC042101F0B4
:1028D00010FC01F06BF8504A504B00F0E3FD2A4623
:1028E000334600F0DFFD5A464F4B00F0DBFD00F0B1
:1028F00077FC606047480A38B0F9040001F0C8F975
:102900006FF00E0101F0F5FB042101F0F2FB01F084
:102910004DF8414A414B00F0C5FD2A46334600F0D0
:10292000C1FD5A46404B00F0BDFD00F059FCA060CF
:1029300038480A38B0F9060001F0AAF96FF00E0124
:1029400001F0D7FB3A4D294601F0CEF901F02EF8FF
:10295000384E0022334600F0A5FD374FDFF8DCA0EB
:102960003A46534600F09EFDDFF8D480DFF8D4905D
:1029700042464B4600F096FD5A462B4B00F092FD26
:1029800000F02EFCE06023480A38B0F9080001F09E
:102990007FF96FF00E0101F0ACFB294601F0A4F9BC
:1029A00001F004F80022334600F07CFD3A4653461D
:1029B00000F078FD42464B4600F074FD5A461A4B33
:1029C00000F070FD00F00CFC206112480A38B0F9EC
:1029D0000A0001F05DF96FF00E0101F08AFB294653
:1029E00001F082F900F0E2FF0022334600F05AFDC8
:1029F0003A46534600F056FD42464B4600F052FD23
:102A00005A46094B00F04EFD00F0EAFB6061BDE85C
:102A1000FC9F00000A0000209A99999999992340F7
:102A20003333F33F0B7C71F5838E1240AC000020F2
:102A30000000FA4400000C4030E80BFA82BEE03F90
:102A4000499224499224F13F10B5054C207808B9E9
:102A5000FFF71EFE206ABDE81040024901F044B9AC
:102A600084000020E12E654210B5054C207808B99D
:102A7000FFF70EFEE069BDE81040024901F034B9ED
:102A800084000020E12E654210B5054C207808B97D
:102A9000FFF7FEFD606ABDE81040024901F024B96D
:102AA00084000020E12E654270B504464FF0FF31EE
:102AB00001F01FFB05461148A0EB6404214628469F
:102AC00001F012F9214601F00FF94FF07F5631461F
:102AD00001F0D6F9214601F007F9044601462846DF
:102AE00001F002F9214601F0FFF8314601F0C8F982
:102AF0002146BDE8704001F0F7B80000DF59375FAC
:102B00000EB5FDF70FFDFFF717FAFEF70DFCFEF708
:102B100057FCFEF7B9FCFDF7CBFBFEF7AEFB4D4DC6
:102B2000288801F0CDF801464B4800F0D3FFFFF7AD
:102B3000A3FDFFF737FE4948FEF770F8002147482C
:102B4000FEF782FA04214548FEF77EFA0821434841
:102B5000FEF77AFA0C214148FEF776FA3F48002446
:102B600001684C6301688C630168CC63006804648D
:102B7000FEF7CDFFFEF73EFF38484830FEF776F807
:102B8000A146344CAA460825DFF8D480283C02260A
:102B90005FF00307FEF72EFF5146D8F80020D1E979
:102BA000023CD21A69EB0C03BAF800C0B2EB0C027B
:102BB00073EB090311D3D8F800208A60CAF80C908F
:102BC000FFF7C8FD25481838D0E90112CDE90012F9
:102BD00003680C3007C800F0A5F8FFF755FFE06068
:102BE000FFF732FF2061FFF73FFF60612169C4E911
:102BF0000710E068A061084600F0D8FE00970B4679
:102C0000CDE90165024600210846FFF705F8206A74
:102C100000F0CCFE0097CDE9016502460B4610217D
:102C20000020FEF7F9FFA06900F0C0FE0097CDE993
:102C3000016502460B4620210020FEF7EDFF0095BE
:102C4000D8F80020072330210020FFF7A3F8FFF772
:102C5000C5F89FE72800002000007A44C400002047
:102C60005C0000202DE9F04D07460E4600F04EFDB9
:102C700004460D463A46334600F0A2FDDFF86CA04C
:102C8000DFF86CB01B4B0746884616F0004F4FF03C
:102C900000020AD000F0CAFB0AD900225B4638467F
:102CA000414600F0FDFC1BD212E000F0BFFB08D251
:102CB000002253462046294600F08EFD04460D466C
:102CC0000EE000225B463846414600F0E9FC07D89A
:102CD000002253462046294600F0B4FA04460D4629
:102CE0003146204665F31E01BDE8F08D0000F03F3F
:102CF0000000E03F0000E0BF70B5054601F0CAF8F3
:102D0000044620F00040C0F1FF40C00F08D025F07D
:102D10000040C0F1FF40C00F04BF0120FDF783FA5F
:102D2000204670BD2DE9FF4F99B09A4615460E46D4
:102D3000FE4C214600F0D8FF83462146304600F085
:102D4000D3FF1A902146284600F0CEFFF84C0146EA
:102D50001B906069039000F0C7FF06461A9920692E
:102D6000069000F0C1FFE768054687F0004059462D
:102D700000F0BAFF294601F015F9314601F012F9C9
:102D80004FF0FF38414601F0B4F905461A9903980F
:102D900000F0AAFF81461B99069800F0A5FF0646A1
:102DA000A1685846079100F09FFF314600F02AFEC7
:102DB000494601F0F7F8414601F09BF906465846AE
:102DC000039900F091FF009038461B9900F08CFFAA
:102DD00081461A99079800F087FF494601F0E2F80A
:102DE000009900F00FFE414601F083F981465846F4
:102DF000069900F079FF834638461A9900F074FF6F
:102E000007461B99079800F06FFF394600F0FAFD5E
:102E1000594601F0C7F8414601F06BF907461AF030
:102E2000FF4F07D1269810F0FF4F03D1279810F0DD
:102E3000FF4F7CD02799084600F056FF269983461D
:102E4000084600F051FF80465146084600F04CFF0E
:102E5000414600F0D7FD594600F0D4FDFFF724FEAF
:102E600080460146504600F03FFF1C9041462698A0
:102E700000F03AFF26904146279800F035FF279052
:102E8000A0680121804601F034F91690E068012124
:102E90000E9001F02EF91490206901210D9001F09F
:102EA00028F9159060690121059001F022F9179029
:102EB0000221404601F01DF90B9002210E9801F00D
:102EC00018F9824602210D9801F013F907900321A9
:102ED0000E9801F00EF90A9003210D9801F009F9FE
:102EE00041460990084600F0FFFE0E9912900846F0
:102EF00000F0FAFE0D990190084600F0F5FE0090F2
:102F00000599084600F0F0FE08902699149800F004
:102F1000EBFE109001990B9800F0E6FE83461C9999
:102F2000159800F0E1FE804600990B9800E0F5E06E
:102F300000F0DAFE414600F065FD594600F062FD02
:102F4000109901F02FF80B905046279900F0CCFE15
:102F5000109000990A9800F0C7FE0F9001990A9806
:102F600000F0C2FE11902699169800F0BDFE0A905E
:102F70000221129801F0BDF883460E9900F0B4FECC
:102F800080461C99179800F0AFFE139050460899A0
:102F900000F0AAFE139901F005F8414600F032FD59
:102FA0000A9900F0FFFF514600F0FCFF119900F074
:102FB00029FD0F9900F026FD109900F023FD8246AF
:102FC0002799079800F090FE0A900099099800F060
:102FD0008BFE0E900199099800F086FE09902699C3
:102FE000179800F081FE0F90DDE9070100F07CFEEC
:102FF00011901C99169800F077FE804658460D995E
:1030000000F072FE414600F0FDFC119900F0FAFC60
:103010000F9900F0C7FF079900F0C4FF099900F06D
:10302000F1FC0E9900F0EEFC0A9900F0EBFC8346EF
:103030002699159800F058FE08900221009801F09A
:1030400058F8059900F050FE80461C99149800F03D
:103050004BFE09900221019801F04BF8059900F010
:1030600043FE099900F09EFF414600F0CBFC089911
:1030700000F098FF8046014600F036FE5946009069
:10308000084600F031FE51460890084600F02CFE3C
:103090000B990990084600F027FE099900F0B2FC50
:1030A000089900F0AFFC009900F0ACFCFFF7FCFCC5
:1030B000014600900B9800F017FE0B9050460099C7
:1030C00000F012FE82465846009900F00DFE83463D
:1030D0004046009900F008FE804660680B99009019
:1030E00000F002FE294600F0CBFE0546514600984E
:1030F00000F0FAFD314600F0C3FE0646594600983E
:1031000000F0F2FD494600F0BBFE814641460098C2
:1031100000F0EAFD394600F0B3FE0746A1692846F3
:103120008A4600F0E1FDA16804E0000039FA8E3C17
:103130008400002000F066FC8046A06051463046C6
:1031400000F0D2FDE16800F05DFC0646E06051460B
:10315000484600F0C9FD216900F054FC0546206195
:103160005146384600F0C0FD616900F04BFC014655
:10317000606100F0B9FD07462946084600F0B4FD3D
:1031800005463146084600F0AFFD06464146084672
:1031900000F0AAFD314600F035FC294600F032FC73
:1031A000394600F02FFCFFF77FFC05460146A0687A
:1031B00000F09AFDA0602946E06800F095FDE0600F
:1031C0002946206900F090FD20612946606900F0E1
:1031D0008BFD6061002020701DB0BDE8F08F000005
:1031E00021F00042A2F16052B2F5801F01F00043CD
:1031F00028BFD2F17F6C0BD95FEA001C43EAC20200
:1032000042EB507018BF704728BF20F00100704794
:10321000B2F5801FBCBF184670474FEA410C1CF541
:10322000001F02D2084600F026BE70B500F0E4F997
:1032300000000089FFF7F6BF4FF00040A0F58000C6
:103240007047000010B591EA030F48BF83F00043B8
:1032500000F1CA82841A71EB030C05D2121943EBF8
:103260000C03001B61EB0C01DFF824E14FEA115461
:10327000A4EB135C1EEA430F18BF9EEA445F73D0B1
:1032800023EA0E03DCF1200E21EA045143F48013FB
:1032900032D322FA0CFE10EB0E0023FA0CFE41EBA7
:1032A0000E01CCF1200E03FA0EFE10EB0E0051F1D0
:1032B0000001B1F5801FCCF1200E32D201EB045198
:1032C00012FA0EF2BDE8104058BF7047401C38BFDC
:1032D0005FEA420218BF7047002814BF20F00100C7
:1032E00041F100014FEA410313F5001F38BF704759
:1032F000A1F1C04100F0CEB9012A43EB0302ACF1C9
:10330000200CDCF11F0E32BF4FF0000E23FA0CF33D
:1033100010EB030041EB0451B4EB115FD0D0A1EBF3
:10332000045101F5801149085FEA300001EB0451B6
:103330000ED350F1000038BF12FA0EFE08D1BDE8DE
:103340001040C9E7401C38BF5FEA4202CAD1C3E758
:10335000BDE810404FEA410313F5001F38BF704726
:10336000A1F1C04100F096B99EEA445F08D011EA8D
:103370005E0FBDE8104004BF01F00041002070471F
:10338000BDE8104070B500F037F900BF64FBBE3EE9
:103390000000E0FF491058BFC1F140415B1058BF29
:1033A000C3F140438B42EFF3008070474FEA115363
:1033B000A3F58063D3F11E03A8BFD3F1200C08DB73
:1033C0004FF0004242EAC12252EA505232FA03F070
:1033D000704709420BD4102BC4BF0020704703F57F
:1033E000787CBCF1FF3F05D04FF0FF3070474FF0C5
:1033F0000000704770B500F0FFF800BF49922480CC
:1034000000207047F0E7B0FA80F310FA03F10AD019
:10341000C3F11D0303F580634FEA41504FEA0352A5
:1034200002EBD12170474FF00000704751EA030CC6
:1034300017D41CF5801F58BFBCF5801F00F1068013
:10344000994218BF704708BF9042704707D711F5DF
:10345000801F58BF13F5801F19D4994270478942C5
:1034600070471CF5801F08D5BCF5801FF7D58B422F
:1034700018BF704708BF824270474FF4001C1CEB16
:10348000410F38BF1CEB430F01D28B42704770B520
:1034900000F0B2F8922449004FF000514FF08053F1
:1034A000FFF778BFDFF848C170B51CEA111E1EBFD8
:1034B0001CEA13159EEA0C0F95EA0C0F00F06F80C2
:1034C00081EA030423EA4C134EEAD47E21EA4C112C
:1034D00041F4801143F48013AE44A1FB024CA0FBE5
:1034E0000365AEF17F7E361955EB0C05A1FB034C4D
:1034F0004CF10003A0FB021C16EB0C06654153F1D6
:103500000003094218BF46F0010613F4007F0BD1F7
:103510004FEA03314FEA0530340341EA155140EADE
:1035200016506FF003020AE04FEAC3214FEAC520AC
:10353000F40241EA555140EA56506FF0020202EBA4
:103540002E4201EB025585EACE710AD05FEA440CA7
:1035500018BF24F0004450F1000041F1000120EABE
:10356000D47040F2FE7C624500D270BDA84214BF08
:103570004FF080444FF04044002E08BF0024BEF1BD
:10358000806FA8BFA1F1C041BDE8704080F2828089
:103590004FF0000001F1C04101F0004170479EEA88
:1035A0000C0F0CEA131518BF95EA0C0F06D04FF05C
:1035B000000081EA030E0EF0004170BD00F01CF81F
:1035C0008900013E00F007B800F009B84FEA430C4B
:1035D0005FEA5C5C08D081EA030100F05BB84FEA67
:1035E000410C5FEA5C5CF6D14FF000000149704786
:1035F0000000FF070000F87F0EF1020E2EF0030E10
:103600005EF8046B364205D4012A43EB030515F539
:10361000001F12D8012841EB010C1CF5001F0CD82B
:103620000ED14FEAD17C15F5001F0CEB4C0C0CF1C0
:10363000020C08BF4CEBD37C04E04FF0080C01E017
:103640004FEAD37C0CEB4C0526FA05F606F007068C
:10365000B6F1040C06D20EEB860CBDE870404CF0BF
:10366000010C6047DFE80CF0090B02024FF000414B
:103670004FF00000A1F5002170BD19461046012849
:1036800051EB010418BFD4F5001484BF002001F0F1
:10369000004170BD0808A0F500114FEA31017047E4
:1036A00053EA010C17D41CF5801F58BFBCF5801FCE
:1036B00000F106808B4218BF704708BF82427047F6
:1036C00007D713F5801F58BF11F5801F19D48B42FF
:1036D00070479B4270471CF5801F08D5BCF5801FC2
:1036E000F7D5994218BF704708BF904270474FF412
:1036F000001C1CEB430F38BF1CEB410F01D2994259
:1037000070470FB40CBC03BCFFF7C1BE5FEA410CAD
:103710005FEA5C5CACF580635B1C39D4D3F13402A6
:1037200040F34580B2F1200314DA4FF0010C0CFA9B
:1037300002FCACF101030340B3EB5C0220EA03009E
:1037400008BF10EA0C0F98BF704710EB0C0041F156
:10375000000170470AD0C3F1200201FA02FC0128DF
:1037600021FA03F101FA03F14CF100004FF0010CD2
:103770000CFA03FCACF10103B0F1004F21EA0301A4
:1037800008BF11EA0C0F4FF0000088BF614470477A
:10379000B3F1FF3F28BF50EAC12C01F000414FF0C8
:1037A000000084BF41F07C5141F470017047B3F5D3
:1037B000806FB8BF704770B5FFF71EFF40DBB6BE25
:1037C00091EA030F10B581F000413FF543AD83F05E
:1037D000004300F009B8000010B591EA030F48BF9C
:1037E00083F000433FF536AD841A71EB030C07D22A
:1037F00012198CF0004C43EB0C03001B61EB0C0125
:10380000DFF8A4E14FEA1154A4EB135C1EEA430F66
:1038100018BF9EEA445F00F0B08023EA6E03524274
:1038200021EA0451C3EB6E0338BF5B1EDCF1200EAE
:1038300025D322FA0CFE10EB0E0043FA0CFE41EBEE
:103840000E01CCF1200E03FA0EFE10EB0E0051F12A
:103850000001CCF1200E29D412FA0EF201EB045132
:10386000BDE8104058BF7047401C1CBFB2F1004F6C
:10387000704700280CBF491C20F00100704712EB74
:10388000020E43EB030218BF4FF0010E4EEA420254
:10389000ACF1200CDCF11E0E54D943FA0CFE10EBF7
:1038A0000E0051F1FF31CCF11E0ED5D50EF1010EF7
:1038B00012FA0EFE404141EB010101EB445C5FEA6C
:1038C0005C5C10D910EBDE7001EB045138BFBEF127
:1038D000004FBDE8104018BF704700280CBF491CBE
:1038E00020F00100704730D24FEAD42C11F50011BE
:1038F00024F400641BD0B1FA81F20B3AA41AA41E7E
:10390000D2F12003914030FA03F31943904001EBC8
:10391000CC71002C01EB0451BDE81040A8BF7047EA
:1039200001F1C0414FF0000001F000417047B0FAD2
:1039300080F310FA03F100D110BDE41A173C4805DA
:10394000C90AE4E701EB045110BD491001EB045131
:10395000BDE810404FEA300002E04FF00001704730
:103960004A0008BF0042F8D0B2F5001F28BF7047D8
:1039700001F000414FF0000070479EEA445F07D01D
:1039800011EA5E0FBDE8104004BF0021002070471F
:10399000BDE8104070B5FFF72FFE00BF40DFF63ED8
:1039A00083F00041104670470000E0FF43004FEAFB
:1039B000D30C4FEA3C0C43401FBF40070CF1605151
:1039C00013F0FE4F70471CF0006F03D100200CF085
:1039D000004170470CF0004343EA507010B540EAD4
:1039E000CC0000F002FA00BF000000924FEA000194
:1039F000FFF750BE4FF000414FF00000A1F500214D
:103A00007047000090EA010F48BF81F0004100F1CB
:103A1000D082421A3CBF801A89184FEAD0524FF028
:103A20007F4C1CEA410FA2EBD15318BF9CEA026FF6
:103A300000F03B804FF0004C4CEA00204CEA0121A2
:103A400021FA03FC10EB0C0C1ED202F1FF325FEAEC
:103A50001C2040EBC25038BF70471CF07F0F4FEA6C
:103A6000400C18BFBCF17F4F38BF7047C3F1200333
:103A7000994008BF20F00100BCF17F4F38BF70476C
:103A8000A0F1C04000F0F7B94FEA3C00000A40EB5B
:103A9000C25028BF1CF0FF0F4FEA400CE6D018BF01
:103AA000BCF17F4F38BF7047EAE79CEA026F05D050
:103AB00010EA5C0F08BF00F00040704710B500F03E
:103AC00094F900BF64FBBE3E014800F0E0BA00BFBD
:103AD0000000C07F4FF47F0C1CEAD0121EBF1CEA0E
:103AE000D11392EA0C0F93EA0C0F00F0858090EA54
:103AF000010F48BF42F4807240F4000C41F4000012
:103B00002CF07F4120F07F4000B58142A2EB030200
:103B10000FF2081CACEB504EC0F100009EF800E024
:103B20004FEA4E0E00FB0EFC38BF49004FEA2C1C3A
:103B300002F5FA020CFB0EF34FEACE1E4FEA112CEF
:103B40004FEAC1210EEB635E42EB22420EFB0CFCFE
:103B50004FEA1C5300FB03114FEA112C4FEA0131CD
:103B60000EFB0CFC4FEADC4C00FB0C11C14228BFE1
:103B700009184CEB03335DF804EB10EB410143EB08
:103B8000C250B2F57C0F38BF704729D512F0F00F44
:103B90001CBF00F1C04000F00040704700818283EC
:103BA0008485868788898B8C8D8E8F91929395964C
:103BB00097999A9C9D9FA0A2A3A5A7A8AAACAEB0D6
:103BC000B2B3B5B7B9BCBEC0C2C5C7C9CCCED1D4DB
:103BD000D7D9DCDFE2E6E9ECF0F3F7FAFE0000000B
:103BE0004FEA400C0CF1807CBCF17E4F28BF70473F
:103BF000B0F1C04000F03FB990EA010F0CEAD113D8
:103C000048BF42F48072624538BF634507D213F45F
:103C10007F0F16D080EA010000F00040704710B519
:103C200000F0E3F8097EFC3E00F005B880EA0100F0
:103C300000F00040704780EA010000F0004000F012
:103C40001AB912F47F0F04BF0248704780EA0100DE
:103C500000F011B90000C07F41000B0ED3F19E02AD
:103C600008D950F400034FEA032323FA02F048BFB7
:103C70004042704710B500F0B8F800BF4992248068
:103C8000002070476FF0004282EA20007047000079
:103C900010F0004148BF4042B0FA80F310FA03F23E
:103CA000C3F19D030BD051EAC35101EB122053061F
:103CB00038BF704700F1010008BF20F001007047D5
:103CC000B0FA80F310FA03F2C3F19D030AD0D905CC
:103CD00001EB1220530638BF704700F1010008BF06
:103CE00020F00100704700004FF47F0C1CEAD01256
:103CF0001EBF1CEAD11392EA0C0F93EA0C0F00F0DE
:103D0000478090EA010F48BF42F480724FF0004CA8
:103D10004CEA00204CEA012102EB0302A0FB011354
:103D2000A2F50002002918BF43F001035B0028BF81
:103D30004FEA330342EB22425FEA132C4CEBC250B2
:103D40002EBFBCEB436FB2F57C0F70474FEA036C9C
:103D5000BCF1004F08BF20F00100B2F57C0F38BF66
:103D600070470BD582F0FF0212F5803FC8BF704745
:103D700000F1C040D8BF00F00040704700F5000CD3
:103D80005FEA4C0C48BF7047B0F1C04000F073B818
:103D900090EA010F0CEAD11348BF42F480726245E9
:103DA00038BF634504D280EA010000F0004070474C
:103DB00010B500F01AF800BF8900013E00F007B806
:103DC00000F009B85FEA410C5FEA1C6C08D080EA99
:103DD000010000F050B85FEA400C5FEA1C6CF6D1BD
:103DE0004FF00040A0F5800070470EF1020E2EF05B
:103DF000030E5EF8044B244204D44FEA4102B2F1B0
:103E00007F4F11D84FEA4003B3F17F4F0CD80ED14A
:103E10004FEAD07CB2F17F4F0CEB4C0C0CF1020C52
:103E200008BF4CEBD17C04E04FF0080C01E04FEAF6
:103E3000D17C0CEB4C0324FA03F404F00704B4F136
:103E4000040C06D20EEB840CBDE810404CF0010CC3
:103E50006047DFE80CF0070802024FF00040A0F5D1
:103E6000800010BD0846420018BFD2F1807288BFA2
:103E700000F0004010BDFF2141EAD050C00570475E
:103E800080F0004090EA010F7FF5C3AD81F0004162
:103E900000F08FB84FEAD051002988BFD1F1FF025E
:103EA00040F2758001F17D014FEA002070B54908AC
:103EB00040F0004038BF40080EA2430E040CD25C14
:103EC00002FB02F304FB03F3C3F14043A3FB0254E0
:103ED000ED0D45EA442202FB02F3A0FB03546D42C0
:103EE000C4F1404438BF641EA2FB05350023E2FB49
:103EF0000453EA0B42EA4342A0FB023212F14004AF
:103F0000A2F12103E40903F07F031F2B32D904EB54
:103F1000C15070BDFEFAF7F3F0ECE9E6E4E1DEDC57
:103F2000D9D7D4D2D0CECCCAC8C6C4C2C1BFBDBCFA
:103F3000BAB9B7B6B4B3B2B0AFAEACABAAA9A8A782
:103F4000A6A4A3A2A1A09F9E9E9D9C9B9A99989790
:103F5000979695949393929190908F8E8E8D8C8C52
:103F60008B8A8A89898887878686858484838382E9
:103F70008281818004FB04F6B6EB004603D5E6425D
:103F800048BF641CC3E7A64258BF641CBFE711F0DA
:103F9000FF0F02D100F00040704710B5FFF725FF7A
:103FA0007FDBFFBE90EA010F48BF81F000413FF583
:103FB00030AD421A04D882F00042A0EB0200114456
:103FC0004FEAD0524FF07F4C1CEA410FA2EBD15385
:103FD00018BF9CEA026F4AD04FF0004C4CEA002018
:103FE0004CEA012121FA03FCB0EB0C0C0FD412F0C7
:103FF000FE0F36D05FEA4C001DD5001240EBC250D8
:1040000038BF70471CF03F0F18BF70470BE0A2F19C
:1040100001025FEA1C2040EBC25038BF70471CF021
:104020007F0F18BF7047C3F12003994014BF401E93
:1040300020F00100704780084FEA122308BF704744
:10404000B0FA80FCA2EB0C02CCF1280C60FA0CF068
:1040500093EA122F04BF00EBC25070474FEAC370BF
:104060007047130A5FEADC1008BF7047F6E79CEA66
:10407000026F04D010EA5C0F08BF0020704710B533
:10408000FFF7B3FE40DFF63E81F0004070470CF0D2
:104090000F03092B08BF082000F051800A2B0BD01A
:1040A000082B18BF704708BF1CF0400F0AD04FF014
:1040B00000004FF0000170471CF0400F18BF4FF098
:1040C000004070471CF0100F08D020F0704300F043
:1040D0007F4242EAD3014FEA4370704700F06040EC
:1040E00021F07F4242EA000201F07F4040EA727014
:1040F00070474FF0FF0212EAD0521CBF92F0FF034C
:104100008B42C2BFD14200EBC1507047002A0AD097
:10411000002B0BD0002900F00040A4BF40F0FE406F
:1041200040F40000704700F00040704743024FF039
:104130000B0C18BF4CF0806C7FF4C6AC70471CF4BD
:10414000801F11D01CF4E02F03D06FEACC3149005E
:1041500070474FF04050EFF3008222F0704242EA85
:10416000000282F3008870474FF0000070470102A0
:1041700002030405060708090A0B0C0D0E0F1010A8
:104180000000000000000000010203040607080907
:10419000000000000000000000000000000000001F
:1041A000000000F8000000000000003330000000B4
:1041B00000160E00160E00000000000000000000B7
:1041C00040C07840C0784000043F04043F0404002D
:1041D000007088FC08300000001820FF211E00003D
:1041E000F008F000E018000000211C031E211E0052
:1041F00000F00888700000001E21232419272110D8
:10420000000000160E00000000000000000000008A
:10421000000000E018040200000000071820400021
:1042200000020418E0000000004020180700000011
:10423000404080F0804040000202010F0102020075
:10424000000000F0000000000101011F0101010059
:10425000000000000000000000B07000000000003E
:104260000000000000000000000101010101010147
:1042700000000000000000000030300000000000DE
:1042800000000000806018040060180601000000B3
:1042900000E010080810E000000F102020100F00B0
:1042A000001010F8000000000020203F2020000037
:1042B000007008080888700000302824222130008F
:1042C00000300888884830000018202020110E0097
:1042D0000000C02010F8000000070424243F240040
:1042E00000F80888880808000019212020110E0015
:1042F00000E0108888180000000F112020110E0027
:1043000000380808C83808000000003F000000001E
:104310000070880808887000001C222121221C00DF
:1043200000E010080810E0000000312222110F0008
:10433000000000C0C000000000000030300000009D
:10434000000000C0C0000000000080B0700000004D
:104350000000804020100800000102040810200026
:104360004040404040404000040404040404040071
:104370000008102040800000002010080402010006
:10438000007048080808F000000000303601000006
:10439000C030C828E810E0000718272423140B00B9
:1043A0000000C038E0000000203C23020227382033
:1043B00008F8888888700000203F202020110E0017
:1043C000C03008080808380007182020201008000E
:1043D00008F808080810E000203F202020100F00F7
:1043E00008F88888E8081000203F202023201800C3
:1043F00008F88888E8081000203F2000030000002B
:10440000C03008080838000007182020221E0200CB
:1044100008F808000008F808203F210101213F208A
:10442000000808F8080800000020203F20200000B5
:1044300000000808F8080800C08080807F000000A5
:1044400008F888C028180800203F200126382000DE
:1044500008F8080000000000203F20202020300045
:1044600008F8F800F8F80800203F003F003F20005F
:1044700008F830C00008F808203F200007183F0067
:10448000E01008080810E0000F10202020100F0096
:1044900008F808080808F000203F21010101000089
:1044A000E01008080810E0000F18242438504F00CE
:1044B00008F8888888887000203F2000030C30208E
:1044C00000708808080838000038202121221C00CC
:1044D000180808F8080818000000203F2000000015
:1044E00008F808000008F808001F202020201F00FE
:1044F0000878880000C83808000007380E0100005E
:10450000F80800F80008F800033C0700073C030027
:10451000081868808068180820302C03032C30208D
:104520000838C800C83808000000203F20000000FC
:1045300010080808C8380800203826212020180054
:10454000000000FE020202000000007F4040400028
:10455000000C30C000000000000000010638C00060
:1045600000020202FE000000004040407F00000008
:1045700000201008040810200000000000000000C7
:10458000000000000000000080808080808080802B
:10459000000204080000000000000000000000000D
:1045A00000008080808000000019242222223F2009
:1045B00008F8008080000000003F112020110E004C
:1045C0000000008080800000000E112020201100DB
:1045D000000000808088F800000E112020103F208D
:1045E0000000808080800000001F22222222130011
:1045F000008080F0888888180020203F202000005C
:104600000000808080808000006B94949493600010
:1046100008F8008080800000203F210000203F201B
:1046200000809898000000000020203F202000001B
:10463000000000809898000000C08080807F00000B
:1046400008F8000080808000203F24022D302000E8
:10465000000808F8000000000020203F2020000093
:104660008080808080808000203F20003F20003FAD
:10467000008080008080000000203F2100203F203B
:104680000000808080800000001F202020201F006C
:10469000808000808000000080FFA12020110E009B
:1046A0000000008080808000000E112020A0FF808C
:1046B000808080008080800020203F212000010039
:1046C000000080808080800000332424242419008E
:1046D000008080E0808000000000001F202000009B
:1046E0008080000000808000001F202020103F20DC
:1046F000808080000080808000010E30080601006C
:1047000080800080008080800F300C030C300F0010
:1047100000808000808080000020312E0E3120003B
:10472000808080000080808080818E70180601006B
:1047300000808080808080000021302C2221300089
:1047400000000000807C020200000000003F4040AA
:1047500000000000FF00000000000000FF0000005B
:104760000002027C800000000040403F000000008A
:104770000080404080000080000000000001010037
:104780000000000000000000002F000000000700F3
:10479000070000147F147F1400242A7F2A120023AC
:1047A00013086462003649552250000000070000DB
:1047B00000001C224100000041221C000014083EA1
:1047C00008140008083E0808000000A06000000867
:1047D00008080808000060600000002010080402BB
:1047E000003E5149453E0000427F40000042615179
:1047F0004946002141454B31001814127F10002713
:1048000045454539003C4A494930000171090503D5
:1048100000364949493600064949291E0000363606
:104820000000000056360000000814224100001469
:104830001414141400004122140800020151090646
:10484000003E4955592E007C1211127C007F4949C7
:104850004936003E41414122007F4141221C007FF8
:1048600049494941007F09090901003E4149497A06
:10487000007F0808087F0000417F41000020404180
:104880003F01007F08142241007F40404040007FEC
:10489000020C027F007F0408107F003E4141413E30
:1048A000007F09090906003E4151215E007F091978
:1048B00029460046494949310001017F0101003F75
:1048C0004040403F001F2040201F003F4038403FF5
:1048D0000063140814630007087008070061514959
:1048E000454300007F414100000204081020000001
:1048F00041417F000004020102040040404040406A
:10490000000001020400002054545478007F484401
:10491000443800384444442000384444487F003838
:104920005454541800087E0901020018A4A4A47C61
:10493000007F080404780000447D4000004080842B
:104940007D00007F102844000000417F4000007C73
:1049500004180478007C080404780038444444387F
:1049600000FC242424180018242418FC007C0804CB
:10497000040800485454542000043F444020003CA4
:104980004040207C001C2040201C003C4030403C2B
:10499000004428102844001CA0A0A07C00446454BB
:1049A0004C440000087F41000000007F0000000030
:1049B000417F08000008040810080000DC490008D6
:1049C00000000020AC00000028010008884A000810
:1049D000AC000020440B000044010008000000006F
:1049E00000000000000000000000000000000000C7
:1049F00000000000000000000000000000000000B7
:104A0000000000000A00000000000000000000009C
:104A10000000000000000000000000000000000096
:104A20000000000000000000000000000000000086
:104A300001000000100000000000000000127A00D9
:104A40000000000011223344551122334455000068
:104A50000000000000000000000000000000000056
:104A600000000000CDCCCC3D0000803F00000000E5
:104A700000000000000000000AD7233C00000000F6
:084A800000000000000000002E
:04000005080000ED02
:00000001FF
