:020000040800F2
:10000000C00E0020C90100085D1A0008391600085A
:100010000D190008490300088929000800000000A4
:100020000000000000000000000000001B26000887
:100030009D03000800000000192600081D26000886
:10004000E3010008E3010008E3010008E301000800
:10005000E3010008E3010008E3010008E3010008F0
:10006000E3010008E3010008E3010008E3010008E0
:10007000E3010008E3010008E3010008E3010008D0
:10008000E3010008E3010008E3010008E3010008C0
:10009000E3010008E3010008E3010008E3010008B0
:1000A000E3010008E3010008E3010008E3010008A0
:1000B000812600088D260008E3010008E3010008FE
:1000C000E3010008E3010008E3010008E301000880
:1000D000E3010008E3010008E3010008E301000870
:1000E000E3010008E3010008E301000800F002F862
:1000F00000F05AF80AA090E8000C82448344AAF168
:100100000107DA4501D100F04FF8AFF2090EBAE865
:100110000F0013F0010F18BFFB1A43F0010318473B
:100120007C5B00009C5B00000A444FF0000C10F860
:10013000013B13F0070408BF10F8014B1D1108BF65
:1001400010F8015B641E05D010F8016B641E01F805
:10015000016BF9D113F0080F1EBF10F8014BAD1C55
:100160000C1B09D16D1E58BF01F801CBFAD505E073
:1001700014F8016B01F8016B6D1EF9D59142D6D3CD
:10018000704700000023002400250026103A28BFF5
:1001900078C1FBD8520728BF30C148BF0B607047F9
:1001A0001FB51FBD10B510BD00F0A0F81146FFF738
:1001B000F7FF03F0EBFA00F0BEF803B4FFF7F2FF2D
:1001C00003BC02F0C7FC000009488047094800470B
:1001D000FEE7FEE7FEE7FEE7FEE7FEE7FEE7FEE7F7
:1001E000FEE7FEE704480549054A064B7047000054
:1001F0007F260008ED000008C0080020C00E002087
:10020000C00A0020C00A0020704710B5203AC0F094
:100210000B80B1E81850203AA0E81850B1E8185007
:10022000A0E81850BFF4F5AF5FEA027C24BFB1E844
:100230001850A0E8185044BF18C918C0BDE81040B5
:100240005FEA827C24BF51F8043B40F8043B08BFBE
:100250007047D20728BF31F8023B48BF11F8012B85
:1002600028BF20F8023B48BF00F8012B70474FF031
:10027000000200B5134694469646203922BFA0E8F6
:100280000C50A0E80C50B1F12001BFF4F7AF090702
:1002900028BFA0E80C5048BF0CC05DF804EB8900F3
:1002A00028BF40F8042B08BF704748BF20F8022B36
:1002B00011F0804F18BF00F8012B7047704770474E
:1002C0007047704710B500F009F8006810BD10B510
:1002D000044600F003F8046010BD000000487047B9
:1002E0006008002000487047600800207546FFF74E
:1002F000F9FFAE4605006946534620F007008546E3
:1003000018B020B5FFF76EFFBDE820404FF00006A3
:100310004FF000074FF000084FF0000B21F00701ED
:10032000AC46ACE8C009ACE8C009ACE8C009ACE830
:10033000C0098D46704710B50446AFF300802046D3
:10034000BDE81040FFF739BFFEE70000074800682E
:10035000416A4FF47A7209B2914201DD42627047FC
:100360000029FCDA002141627047000030030020C0
:100370000848016841F08071016007480021416030
:10038000016841F001010160406808B10020704738
:1003900001207047FCED00E0001000E07047000015
:1003A00004494A68044B58434B689B1A8342FBD369
:1003B00070470000001000E080380100044A5168D6
:1003C00000EB8000000153685B1A8342FBD3704747
:1003D000001000E02DE9FF4F134695B00A46014694
:1003E00008A8249F02F026FF3F237F222299189815
:1003F00001F020FD189A3F231046229901F048FD94
:10040000002606EB8609002407EB49056FE0281952
:1004100090F80680B8F1080F68DA37F9190001ABD7
:10042000B5F90420B5F9021083E807000B98009095
:1004300008A890E80E000EA803F041FBDDE90E01CC
:100440008B461899019001F17F0A239804F00AFD68
:100450001190019904F032FD04F0E8FC0AEBDA7126
:1004600000EB61001491229900B2079001F13F0A5C
:100470005946119804F022FD04F0D8FC0AEBDA7119
:1004800000EB61000FFA80FB08EB8800139107EB8B
:10049000400137F91000B1F9042001ABB1F90210A5
:1004A00083E807000B98009008A890E80E000EA8BB
:1004B00003F005FBDDE90E108046119804F0FEFC08
:1004C00004F0B4FC149900EB61000FFA80FA414685
:1004D000119804F0F3FC04F0A9FC1399524600EBC8
:1004E000610003B25946079801F0D2FC641C687A97
:1004F000A0428CDC761C082E83DB19B0BDE8F08F9F
:1005000030B58FB024216846FFF7B1FE00241E48A5
:100510000A940C94C16941F00201C161C16901F002
:1005200002010D91816941F0040181618069012519
:1005300000F004000D90C020099009A90B95134804
:1005400000F036F813481249C0E900144FF6FF7165
:10055000C0E902410461846103208DE831000F206D
:10056000CDE90340CDE90545CDE907406946094895
:1005700000F0C2FD08B100F00FF83C21054800F082
:100580000EFE0FB030BD0000001002400008014018
:10059000000400403003002072B6FEE700B5FFF70C
:1005A000D5FE02480068406A00B200BD300300205A
:1005B0002DE9F84FDFF8B8910024A9F1040B234688
:1005C0000F2709F1040AABF1040EC9E00125A5408B
:1005D0002A40AA427DD1674ED1F804C0ACEB060890
:1005E000B44532D014DCBCF1030F3AD009DCBCF1C5
:1005F000000F2AD0BCF1010F1CD0BCF1020F31D189
:100600001DE0BCF1110F17D0BCF1120F2AD119E077
:10061000B8F5881F19D006DCB8F5803F15D0B8F5BD
:10062000801F1FD111E0B8F5001F0ED0B8F5041FD0
:1006300018D10AE0CB6815E0CB681B1D12E0CB682F
:1006400008330FE0CB680C330CE08B682BB1012B27
:100650004FF0080303D0456104E0042302E0056184
:1006600000E00023FF2A01D8064601E000F104065D
:100670004FEA840501D9A5F12005D6F8008007FAD4
:1006800005FC28EA0C0803FA05F548EA0508C6F84F
:1006900000804D68ED0062D5374DAE6946F0010629
:1006A000AE61AD6924F0030605F001050095334DF8
:1006B00006EB050CDCF80850A607360F07FA06F81B
:1006C00025EA0805DFF8B880404503D14FF000085F
:1006D00017E044E0DFF8AC80404502D14FF001085C
:1006E0000FE0DFF8A480404502D14FF0020808E097
:1006F000DFF89880404502D14FF0030801E04FF049
:10070000040808FA06F848EA0508CCF808804D689D
:10071000D9F80060ED024D4601D5164300E096433E
:100720002E604D68DAF80060AD02554601D51643DB
:1007300000E096432E604D68DBF80060AD035D4637
:1007400001D5164300E096432E604D68DEF8006048
:10075000ED03754601D5164300E096432E60641CF8
:100760000D682A46E5407FF431AFBDE8F88F000000
:100770000804014000001110001002400000014078
:1007800000080140000C014000100140001401402D
:100790008068084000D0012070470AB101617047AD
:1007A0000904FBE7014880687047000054000020FE
:1007B000024881680278114481607047540000202B
:1007C000074810B5016841F010010160032000F0F6
:1007D000BDF80F2000F006F800F024F8002010BD4E
:1007E0000020024070B50D4D04464FF47A71287810
:1007F000B1FBF0F00A490968B1FBF0F000F024FB0E
:1008000048B9102C07D200222146501E00F07EF875
:1008100000206C6070BD012070BD000054000020FD
:10082000600000200C4808B5816941F00101816138
:10083000816901F001010091C16941F08051C161FC
:10084000C06900F0805000900448416821F0E061E8
:1008500041F00071416008BD0010024000000140FD
:100860002DE9F04116460F46040004D094F84100EB
:10087000002518B107E00120BDE8F08184F8405060
:10088000204600F0A1FE242084F841002068C168C1
:1008900021F40051C160204601F0C4FF20680169C5
:1008A00021F4904101612068416921F02A014161F0
:1008B0002068016921F00F01016120680169394355
:1008C00001612068C16821F40061C1602068C168CD
:1008D0003143C1602068C16841F40051C160656462
:1008E000202084F8410084F8420065630020C3E7BB
:1008F000002809DB00F01F0201219140400980001F
:1009000000F1E020C0F8001170470000F0B40E4B79
:100910001B680C46C3F30223C3F10705042D00D95D
:100920000425191D072901D2002300E0DB1E012642
:1009300006FA05F1491E214099409E40761E164058
:100940003143F0BC02F034B80CED00E0064900F091
:10095000070208684FF6FF03184040EA0220034AE6
:1009600010430860704700000CED00E00000FA053D
:100970002DE9F0470F46050061D0434E306800F086
:100980000700B84209D2306820F0070038433060D1
:10099000306800F00700B84251D128683B4C81070D
:1009A00012D5400703D5606840F4E06060602878A5
:1009B000000703D5606840F4605060606068A96813
:1009C00020F0F000084360602878C00728D06868ED
:1009D000012810D02168022810D0890700292EDABA
:1009E000616821F0030101436160FFF7DBFE80468F
:1009F00041F288390DE021688903EFE78901EDE7CD
:100A0000FFF7D0FEA0EB0801494502D90320BDE85D
:100A1000F0876068696800F00C00B0EB810FEFD1DF
:100A2000306800F00700B8420BD9306820F00700AA
:100A300038433060306800F00700B84201D0012030
:100A4000E5E72878400705D56068E96820F4E060AC
:100A5000084360602878000706D56068296920F49B
:100A6000605040EAC100606000F038F86168084AF0
:100A7000C1F30311515CC84006490860064800688C
:100A8000FFF7B0FE0020C2E7002002400010024045
:100A9000B4530008600000205800002004480549B5
:100AA00000684968044AC1F30221515CC84070479C
:100AB0006000002000100240C453000804480549AB
:100AC00000684968044AC1F3C221515CC8407047BC
:100AD0006000002000100240C45300080E4A516814
:100AE0000E4801F00C03042B11D0082B0FD10C4839
:100AF000C1F38343C903C05C0AD55168084AC1F3F6
:100B00004041921E515C054A5043B0FBF1F07047E2
:100B100004494843704700000010024000127A0068
:100B2000A453000800093D002DE9F84F040070D0DF
:100B30002078C04DC00749D06868C0F38100012803
:100B400007D06868C0F38100022809D16868C00333
:100B500006D52868800339D560680028E7D035E0DD
:100B60006068B0F5803F0BD010B1B0F5A02F11D068
:100B7000286820F480302860286820F4802002E073
:100B8000286840F480302860606890B1FFF70AFE62
:100B900006460AE0286840F480202860F0E700BF9D
:100BA000FFF700FE801B642873D828688003F7D500
:100BB0000CE0FFF7F7FD064605E000BFFFF7F2FD8A
:100BC000801B6428F0D828688003F7D420789A4ED8
:100BD00080074FF001094FF0000839D5686810F020
:100BE0000C0F07D06868C0F38100022809D168683B
:100BF000C00306D42868800714D52069012808D1CD
:100C000010E02069B0B1C6F80090FFF7CBFD0746B1
:100C100005E00AE1FFF7C6FDC01B0228C4D828681A
:100C20008007F7D52868616920F0F80040EAC10024
:100C300028600DE0C6F80080FFF7B4FD074604E029
:100C4000FFF7B0FDC01B022823D828688007F7D41F
:100C5000207800072CD57948A169D9B1C0F8009057
:100C6000FFF7A0FD074604E0FFF79CFDC01B02282C
:100C70000FD8686A8007F7D571484FF4FA510068B9
:100C8000B0FBF1F0009000BF0098411E0091FAD235
:100C90000EE080E0C0F80080FFF784FD074604E026
:100CA000FFF780FDC01B022875D8686A8007F7D45B
:100CB0002078400760D5E8690027C00008D4E869BB
:100CC00040F08050E861E869012700F08050009012
:100CD0005C480168C90513D40168834641F48071FA
:100CE0000160FFF75FFD824606E000BFFFF75AFD97
:100CF000A0EB0A0064284ED8DBF80000C005F5D54B
:100D0000E06801280AD008B1052813D0286A20F02D
:100D100001002862286A20F0040002E0286A40F0FE
:100D200001002862E06841F2883B98B1FFF73AFD84
:100D300082460BE0286A40F004002862EEE700BF1C
:100D4000FFF730FDA0EB0A0159455AD8286A800701
:100D5000F6D50CE0FFF726FD824605E0FFF722FD01
:100D6000A0EB0A0159454CD8286A8007F6D41FB178
:100D7000E86920F08050E861E06988B36968C1F3F0
:100D80008101022944D00228C6F8608004D0FFF710
:100D900009FD044638E034E0FFF704FD074604E0AF
:100DA000FFF700FDC01B02282BD828688001F7D46C
:100DB000206AB0F5803F05D16868A16820F4003052
:100DC00008436860D4E908010843696821F4741194
:100DD00008436860C6F86090FFF7E4FC044606E04C
:100DE00025E000BFFFF7DEFC001B022809D82868B9
:100DF0008001F7D51BE000BFFFF7D4FC001B0228E1
:100E000002D90320BDE8F88F28688001F4D40EE0F1
:100E10000128F7D06868226A00F48031914204D139
:100E2000616A00F47010884201D00120EAE70020D6
:100E3000E8E7000000100240000042428004424205
:100E4000600000200070004010B5401EB0F1807FAF
:100E500001D3012010BD4FF0E02460610F21601725
:100E600001F0A6FD0020A06107202061002010BD38
:100E70007047704770B590F83C20012A26D00124B5
:100E800080F83C40022280F83D2003685A689D6843
:100E900022F070060A6832435A600D4B02689A428B
:100EA00008D0B2F1804F05D00A4B9A4202D00A4BCB
:100EB0009A4204D1496825F080031943916080F873
:100EC0003D40002180F83C10084670BD022070BDF6
:100ED000002C0140000400400008004010B5040050
:100EE00003D094F83D0010B107E0012010BD0020B0
:100EF00084F83C00204600F01FF8022084F83D00F2
:100F0000211D206801F0C8FB012084F8460084F808
:100F10003E0084F83F0084F8400084F8410084F8E3
:100F2000420084F8430084F8440084F8450084F8C3
:100F30003D00002010BD000000B585B000210091EB
:100F400001910291039101681B48B1F1804F23D0B8
:100F50001A4A91421ED1C16941F00201C161C169C1
:100F600001F002010491816941F00401816180690D
:100F7000694600F004000490C02000901048FFF77C
:100F800017FB002211461D20FFF7C0FC5FF01D007B
:100F9000FFF7AEFC05B000BDC16941F00101C161C0
:100FA000C069002200F00100049011461C20FFF7E8
:100FB000ADFC1C20ECE700000010024000040040E3
:100FC0000008014090F83D10012901D00120704730
:100FD000022180F83D100168CA6842F00102CA602F
:100FE00000680B49884208D0B0F1804F05D009490C
:100FF000884202D00849884204D1816801F0070183
:10100000062903D0016841F001010160002070470A
:10101000002C0140000400400008004070B5044668
:1010200090F83C000025012817D0012684F83C6088
:10103000022084F83D002068826822F0770222F4C2
:101040007F4282600868502838D00DDC20284FD0BD
:1010500005DC90B3102811D14AE0022070BD302881
:1010600046D040280AD13BE060282FD070280DD010
:10107000B0F5805F03D0B0F5005F12D0012584F891
:101080003D60002084F83C00284670BDCB68D1E963
:101090000121206801F049FB2068816841F0770157
:1010A00009E0CB68D1E90121206801F03EFB20680E
:1010B000816841F480418160E1E719E0CA684968CC
:1010C000206801F044FB5021206806E0CA684968A6
:1010D000206801F079FB6021206801F030FBCEE749
:1010E000CA684968206801F032FB40212068F4E7B3
:1010F000226801461046F0E72DE9F0410D46040054
:1011000003D094F83D0018B108E00120BDE8F0815B
:10111000002084F83C00204600F040F8022084F8CB
:101120003D002068816844F2070291438160211DDF
:10113000206801F0B1FA226890689169166A2B68FC
:10114000AF69034340F20330814341EA0721A868B5
:10115000EF6908434FF6FC418843E96840EA0720FD
:10116000014328692F6A000140EA07300843696893
:101170006D6926F0220646EA051529439360226828
:10118000906154F8460B0162012004F81F09E075D4
:101190002076E0762077A0750020B7E7704770B51D
:1011A00090F83E60044690F83F5090F8423090F836
:1011B0004320022021B104290ED0012E1BD114E0BE
:1011C000012E18D1012B16D184F83E0084F842007C
:1011D00001220021206820E0012D0CD1012A0AD132
:1011E00084F83F0084F8430014E0012D03D1012B63
:1011F00001D1012A01D0012070BD84F83E0084F89D
:101200003F0084F8420084F8430001220021206856
:1012100001F07EFA01220421206801F079FA2068A9
:10122000016841F001010160002070BD70472DE9A7
:10123000F041054690F83C0000260C46012810D0ED
:10124000012085F83C0072B1042A1CD0082A2CD059
:101250000C2A50D00126002085F83C003046BDE81D
:10126000F0810220FBE7D4E90012E368286801F06E
:101270007FFA2868816921F00C0181612868816901
:10128000A26811430FE0D4E90012E368286801F076
:10129000ADFA2868816921F440618161286881691B
:1012A000A26841EA02218161D5E72868D4E9002CCF
:1012B000277B036A016A21F480710162C16923F40A
:1012C000007321F0030141EA0C0121F0F00C390711
:1012D0004FF400774CEA116107EA02221A43C16118
:1012E00002622868C16921F00C01C1612868C169E6
:1012F000A26811432BE02868D4E90021E768036A5B
:10130000D0F820C02CF4805CC0F820C0D0F81CC0FD
:1013100023F400532CF4407C4CEA012121F4704C5E
:101320004FF6FF7101EA07314FF4005741EA0C0113
:1013300007EA02321A43C16102622868C16921F4D6
:101340004061C1612868C169A26841EA0221C161A6
:1013500081E710B5040003D094F83D0010B107E018
:10136000012010BD002084F83C00204600F01EF84B
:10137000022084F83D00211D206801F08DF9012034
:1013800084F8460084F83E0084F83F0084F840006A
:1013900084F8410084F8420084F8430084F8440053
:1013A00084F8450084F83D00002010BD70472DE909
:1013B000F04104460068C66805694FF00007A907B8
:1013C00013D5B10711D5F91E0161012020772068DE
:1013D00080698007204602D0FFF728FF04E000F074
:1013E0007EF8204600F07CF82777680716D570074E
:1013F00014D521686FF0040008610220207720686E
:10140000806910F4407F204602D0FFF70FFF04E010
:1014100000F065F8204600F063F82777280715D517
:10142000300713D521686FF0080008610420207789
:101430002068C0698007204602D0FFF7F7FE04E06D
:1014400000F04DF8204600F04BF82777E80616D557
:10145000F00614D521686FF010000861082020778D
:101460002068C06910F4407F204602D0FFF7DEFEFE
:1014700004E000F034F8204600F032F82777E8075F
:1014800008D0F00706D021686FF0010008612046FF
:1014900000F028F8280608D5300606D521686FF038
:1014A000800008612046FFF7E3FC680608D5700657
:1014B00006D521686FF040000861204600F082F8F0
:1014C000A8060AD5B00608D521686FF0200008618B
:1014D0002046BDE8F041FFF7CCBCBDE8F081704785
:1014E00070470000FEB50068B0F1804F58D1FFF79B
:1014F00055F82C492D4B2F4A08802B482C492E4D4E
:10150000006858600968D96012689A605C78CDE913
:1015100000451B7801F024F800F0BCFB274C20703C
:1015200002F0C8FB062000900223227838217020A8
:1015300000F08EFF00F056FB012831D11B481B380C
:10154000441ECDE90040C31D1A1D1D48211D01F098
:10155000C5F9606803F014FB0327082502260097ED
:10156000CDE9016502460B460021402000F0B2FEA5
:10157000E06803F005FB0097CDE9016502460B46E4
:101580001021402000F0A6FEA06803F0F9FA0097B1
:10159000CDE9016502460B462021402000F09AFE6D
:1015A000FEBD0000C80200202000002044080020EA
:1015B000240000201C0000206E00002050000020AD
:1015C000760000207047000030B585B000240094FC
:1015D00001940294039400681449884224D1144869
:1015E000816941F480418161816901F48041049104
:1015F000816941F00401816180690E4D00F00400B1
:1016000004904FF40070009002200190032003909A
:1016100069462846FEF7CCFF2815CDE90004694647
:1016200028460294FEF7C4FF05B030BD00380140E3
:101630000010024000080140FEE72DE9F047074690
:10164000DDE9089A1D4690460E463B2000F05EF804
:1016500004463C2000F05AF840EA042038803D203F
:1016600000F054F804463E2000F050F840EA042010
:1016700030803F2000F04AF80446402000F046F851
:1016800040EA0420A8F80000432000F03FF8044698
:10169000442000F03BF840EA04202880452000F078
:1016A00035F80446462000F031F840EA0420A9F855
:1016B0000000472000F02AF80446482000F026F8F1
:1016C00040EA0420AAF80000BDE8F08710B500F059
:1016D0001FF901216B2000F038F800216C2000F088
:1016E00034F80921192000F030F806211A2000F002
:1016F0002CF818211B2000F028F818211C2000F0DD
:1017000024F8BDE810406420FEF74ABE10B5044638
:1017100000F06CF9D02000F055F900F01FF92046D8
:1017200000F050F900F01AF900F060F9D12000F053
:1017300049F900F013F900F020F90446012000F007
:1017400036F900F062F9204610BD70B50D4604462A
:1017500000F04CF9D02000F035F900F0FFF82046F9
:1017600000F030F900F0FAF8284600F02BF900F00C
:10177000F5F8BDE8704000F048B9000070B586B0DB
:1017800000241C480094019402940394816941F060
:1017900020018161816901F020010491816941F09A
:1017A00004018161816901F004010491816941F0C2
:1017B000080181618069104E00F008004FF47C65DB
:1017C0000490002229463046FEF7E7FF0120CDE9CC
:1017D0000050022569463046CDE90245FEF7E8FE95
:1017E0004FF470408DE8310069463046FEF7E0FE68
:1017F00006B070BD00100240000C014010B586B06C
:1018000000241748009401940294039404944FF028
:1018100080410594016040F2CF21C0E9011440F2FB
:10182000E731C0E9031480218161FFF757FB08B15C
:1018300072B6FEE74FF48050009069460848FFF703
:10184000EDFB08B172B6FEE7049404A904480594C0
:10185000FFF710FB002801D072B6FEE706B010BDFE
:10186000E802002010B58AB00024274804940594AB
:1018700006940794089409940094019402942149D1
:10188000039401602321C0E9011440F2CF71C0E943
:10189000031480218161FFF721FB08B172B6FEE7D6
:1018A0004FF48050049004A91748FFF7B7FB08B124
:1018B00072B6FEE71448FFF74CFD08B172B6FEE7BA
:1018C000089408A910480994FFF7D4FA08B172B631
:1018D000FEE70120CDE900400294002269460A4853
:1018E0000394FFF7A4FC08B172B6FEE70422694630
:1018F0000548FFF79CFC002801D072B6FEE70AB04D
:1019000010BD00000004004030030020FEE700008E
:101910001FB5002002904FF48060009011200190CC
:101920000320094C039069462046FEF741FEE0146F
:10193000009069462046FEF73BFE012000F072F859
:10194000012000F07DF81FBD000C01404FF4006144
:101950000148FEF71DBF0000000C014010B501203A
:1019600000F06EF8012000F05DF8FFF7EFFF04468D
:10197000002000F057F8204610BD70B5002501206A
:1019800000F05EF800248026012000F04BF8FFF7FD
:10199000DDFF012802D126FA04F00543002000F003
:1019A00041F8641CE4B2082CEED3284670BD10B593
:1019B00000F046F8012000F035F8BDE810400020A6
:1019C00000F030B870B500240546802626FA04F0F1
:1019D000284000F035F8012000F024F8002000F045
:1019E00021F8641CE4B2082CF0D370BD10B50120BE
:1019F00000F026F8012000F015F8002000F020F893
:101A0000BDE81040002000F00DB810B5002000F037
:101A100017F8012000F006F8BDE81040012000F0A2
:101A20000FB8000010B502464FF480610348FEF77E
:101A3000B4FEBDE810400A20FEF7C0BC000C014017
:101A400010B502464FF400610348FEF7A6FEBDE85C
:101A500010400A20FEF7B2BC000C0140FEE710B5B2
:101A6000002000F073F9E22000F0F6F8BDE8104025
:101A7000012000F06BB910B5002000F067F9E120FB
:101A800000F0EAF8BDE81040012000F05FB9000066
:101A900070B586B0154800240294816941F00401B4
:101AA00081618069012500F0040004900F20CDE9D8
:101AB000000503200E4E039069463046FEF778FD80
:101AC00010208DE8310069463046FEF771FD002098
:101AD00000F032F9012000F039F9002000F04AF955
:101AE000002000F03DF906B070BD0000001002407B
:101AF0000008014010B5FFF7CBFF0821002000F0DF
:101B000043F93F21012000F03FF90121022000F0BC
:101B10003BF90321084600F037F90321042000F0C7
:101B200033F90221052000F02FF90E21062000F0E4
:101B30002BF90821112000F027F9052207490A2076
:101B400000F034F9FFF797FFFFF789FF70210720B6
:101B500000F01AF9BDE8104000F06AB869000020F2
:101B600010B510210348FEF713FE012800D0002015
:101B700010BD00000008014010B50446002000F030
:101B8000E5F8204600F068F8FF2000F065F804460C
:101B9000012000F0DBF8204610BD70B506460D466A
:101BA000002000F0D3F8612000F056F8002405E092
:101BB000FF2000F051F83055641CE4B2AC42F7D37A
:101BC000BDE87040012000F0C1B810B5002000F061
:101BD000BDF8FF2000F040F80446012000F0B6F800
:101BE000204610BD10B5FFF7F0FF04460020FFF7B8
:101BF000C3FF800701D4032412E0C4F301100328BB
:101C00000DD060060FD5012408210848FFF7C5FF55
:101C10004021072000F0B8F8FFF721FF04E002247C
:101C2000FFF768FF00E00024204610BD760000208A
:101C300010B5002000F080F80020FFF79DFFFF287E
:101C400009D040F00301002000F09EF8BDE81040EC
:101C5000012000F071B810BD70B5044600252006C3
:101C600001D5012000E0002000F07AF86006040EA3
:101C7000012000F07FF8FFF773FF08B144F0010482
:101C8000002000F077F86D1CEDB2082DE7D3204658
:101C900070BD000010B505221B49102000F086F829
:101CA000052219490A2000F081F8174808210A3056
:101CB00000F095F800F02AF842F21074FFF785FF63
:101CC000641E07D0C0F30111032905D0C10607D552
:101CD000022402E0042400E00324FFF70BFF02E0EB
:101CE0008006EBD501243021072000F04DF8FFF7E6
:101CF000C2FE05490522491D0A2000F057F8FFF7EA
:101D000097FF204610BD00006400002010B50020A1
:101D100000F012F80020FFF72FFFFF280BD020F073
:101D2000010040F00201002000F02EF8BDE8104054
:101D3000012000F001B810BD08B1012200E000222E
:101D400001210148FEF729BD0008014008B1012228
:101D500000E0002202210148FEF71FBD00080140FB
:101D600008B1012200E0002208210148FEF715BD5C
:101D70000008014008B1012200E0002204210148CE
:101D8000FEF70BBD0008014070B504460D4600206B
:101D9000FFF7DCFF44F02000FFF75EFF2846FFF767
:101DA0005BFFBDE870400120FFF7D0BF70B504466F
:101DB00015460E460020FFF7C9FF44F02000FFF74C
:101DC0004BFF002404E0305DFFF746FF641CE4B2E3
:101DD000AC42F8D3BDE870400120FFF7B7BF70B543
:101DE00006460D460020FFF7B1FFA020FFF734FFA5
:101DF000002404E0305DFFF72FFF641CE4B2AC4226
:101E0000F8D3BDE870400120FFF7A0BF10B5002156
:101E1000074C0A46002004EBC1131A54401CC0B200
:101E20008028FAD3491CC9B20829F3D310BD000099
:101E3000C0030020F0B50B4424E0044685181DE0E3
:101E40007F2C19D8002917DB3F2915DCCE1701EBB1
:101E500056764FEAE60C0D4F26F0070607EBCC1737
:101E60002744A1EB060E97F800C0012606FA0EF6ED
:101E70002CEA060C87F800C0641C24B2A542DFDC03
:101E8000491C09B28B42D8DCF0BD0000C003002021
:101E90002DE9F04F1E464FF0000904460D46174647
:101EA000C846B1420ED1BC4208DD2746144605E0C3
:101EB0002946204600F0AAF8641C24B2BC42F7DD93
:101EC000BDE8F08FBC420DD1B54208DD1D460E467F
:101ED00005E02946204600F099F86D1C2DB2B54268
:101EE000F7DDEDE703DD274614461D460E46B542F5
:101EF00005DD684205B2704206B24FF00109701B61
:101F0000391B884207DD20462C46054638463746B1
:101F100006464FF00108701B4200391B0FFA82FB86
:101F2000421A52000FFA82FAC1EB400019E06042F7
:101F300001B203E0684201B203E02146284601E015
:101F40002946204600F062F8BC42B9DA641C24B28B
:101F5000002E02DA06EB0B0003E06D1C2DB206EB3F
:101F60000A0006B2B9F1000F03D0B8F1000FE1D0BA
:101F7000DDE7B8F1000FE3D0DFE700002DE9F8431B
:101F8000014600E01146CA681AB112690AB18A42D4
:101F9000F8D100235C1E0A4604E0824200D11C46B0
:101FA00052695B1C002AF8D10026042C01DBE01EDC
:101FB000C6B20D46002001E06D69401CB04201DA56
:101FC000002DF9D1FFF722FF0027B9461AE000BF24
:101FD000F0194FEA0718A04208D1102340220FFA47
:101FE00088F10020CDF8009000F06AF808F10200B6
:101FF00001B2082302202A6800F04DFA6D697F1CA7
:10200000042F01DA002DE3D1BDE8F88310B57F2855
:1020100013D8002911DB3F290FDCCA1701EB5272DC
:10202000D410064B22F0070203EBC41318448A1A9B
:102030000378012191400B43037010BDC0030020C1
:102040002DE9F8431C4616460F46804605232822F4
:10205000089DFFF7EFFE0020009005232822394657
:10206000404600F02DF8A54200DC651CA64200DACF
:102070002646AE4200DD2E46281B02F0F3FE054642
:10208000301B02F0EFFE294602F00EFE0B4902F073
:1020900015FF4FF07C5102F09FFD02F0C7FE0028B3
:1020A0000ADD0121C2B27F1C009108F10100032367
:1020B00039B200B200F004F8BDE8F883000018421D
:1020C0002DE9F0430446CD1807988846A618274600
:1020D00068BB681E0FFA80F909E041463846FFF7F1
:1020E00095FF49463846FFF791FF7F1C3FB2BE423D
:1020F000F3DC761E474636B209E039462046FFF744
:1021000085FF30463946FFF781FF7F1C3FB2BD4255
:10211000F3DCBDE8F083444605E021463846FFF78E
:1021200075FF641C24B2A542F7DC7F1C3FB2BE429F
:10213000F1DCEEE710B500204FF47A720021491C63
:102140009142FCD3401C9042F8D3012000F0CEF91C
:10215000BDE81040012000F0D1B970B5002406465A
:10216000802525FA04F0304000D0012000F0C6F9A7
:10217000012000F0BBF9002000F0B8F9641CE4B2C3
:10218000082CEED3012000F0B1F9BDE8704000202A
:1021900000F0ACB910B5012000F0B0F9012000F05A
:1021A000A5F9002000F0AAF9BDE81040002000F0D9
:1021B0009DB910B5002000F0A1F9012000F096F9BA
:1021C000BDE81040012000F099B910B5FFF7B2FF4B
:1021D000AE2000F09BF9D52000F098F9802000F0A7
:1021E00095F9A82000F092F93F2000F08FF9D32054
:1021F00000F08CF9002000F089F9402000F086F909
:10220000A12000F083F9C82000F080F9DA2000F066
:102210007DF9122000F07AF9812000F077F9CF20C3
:1022200000F074F9D92000F071F9F12000F06EF996
:10223000DB2000F06BF9302000F068F9A42000F0FA
:1022400065F9A62000F062F98D2000F05FF91420F6
:1022500000F05CF9AF2000F059F9FFF7D7FDBDE8B9
:10226000104000F02FB90246012000E05043491E03
:10227000FCD2704710B50C4640F0B00000F046F9B3
:10228000102040EA141000F041F904F00F00BDE8FE
:10229000104000F03BB9000008B5082B0DD0062B0C
:1022A0000AD10A4B02EB420203EB4202C03A00920F
:1022B0000823062200F06EF808BD054B03EB02125E
:1022C000A2F50072102300920822F3E7BC5900081F
:1022D000CC5300082DE9FF5F82B014461D46DDE9AE
:1022E00011B607460022134620462946DDF84080F5
:1022F00002F0C0FA334605D82B2238460399FFF77F
:10230000CBFF06E02D2238460399FFF7C5FF85F085
:1023100000452046294602F033F9824602F05DF975
:1023200022462B4602F036FB05460C4659460A204B
:10233000FFF799FF814602F050F92A46234602F042
:102340009BF901F06DFC02F01BF9B0FBF9F10446BA
:1023500001EB0A02B81900B243460096039900F057
:1023600077F808F1010000FB067000B233462E2218
:102370000399FFF791FF08F1020000FB067000B21D
:102380005B4622460096039900F062F806B0BDE86D
:10239000F09F00002DE9F04F1F4616460D4682467D
:1023A0000024FFF747FD7F1EF81707EB507001214F
:1023B000DFF898B001EBE00743E000203DE000BF0C
:1023C0000AEB00037F2B36D8E91705EB5171CA10D1
:1023D00021F00701691A002D03DA521E083112B2EA
:1023E00009B202EB0409B9F1070F0ED8099A04FBF0
:1023F00006F802440BEBC91E18F802201EF803C0B1
:102400008A404CEA020C0EF803C009F10102072AC7
:1024100011D80BEBC91202EB0308099A04FB06FC66
:10242000024498F880301CF80220C1F10801CA402B
:10243000134388F88030401CC0B2B042C0D3641C43
:10244000E4B2A742B9DCBDE8F08F0000C003002071
:102450002DE9F04700241D4690468A4681460A270A
:10246000089E14E0291B0A20491EFFF7FCFEB8FB5A
:10247000F0F0B0FBF7F107FB110204FB069000B28D
:10248000334651463032FFF707FF641CE4B2AC42DA
:10249000E8D3BDE8F0872DE9F0411E461546884691
:1024A0000746002408E004FB067000B233464146AC
:1024B000FFF7F2FE641CE4B22A5D002AF3D1BDE806
:1024C000F081000070B5084D002400212046FFF780
:1024D000D1FE05EBC410802100F029F8641CE4B2A1
:1024E000082CF2D370BD0000C003002002464FF458
:1024F00080710148FEF751B9000C014002464FF4CB
:1025000000710148FEF749B9000C014010B50446BE
:10251000FFF740FE7820FFF720FE0020FFF71DFEAA
:102520002046FFF71AFEBDE81040FFF742BE70B527
:102530000D460646FFF72EFE7820FFF70EFE4020E0
:10254000FFF70BFE002404E0305DFFF706FE641C7D
:10255000E4B2AC42F8D3BDE87040FFF72ABE0000F9
:102560002DE9F05F294DDDE90AC7294CA84201D9C0
:10257000284602E0A04200DD2046A94201D92946B2
:1025800002E0A14200DD21460E46AA4201D92C46B6
:1025900002E0A24200DC1446092B00D90923984628
:1025A000BCF1640F01D94FF0640CDFF868A0E1467C
:1025B000514602F083FC4FF07C5B594602F00CFB65
:1025C00002F034FC05465146304602F077FC59468D
:1025D00002F002FB02F02AFC06465146204602F0B9
:1025E0006DFC594602F0F8FA02F020FC3D70290A11
:1025F0007970BE70310AF9703871000A787187F805
:10260000068087F80790BDE8F09F0000000033C304
:10261000000033430000204170477047FEF7C8B800
:1026200030B58FB028216846FDF721FE14210AA895
:10263000FDF71DFE01210804CDE9001000240294DD
:1026400002250491CDE907504FF4E0100990684647
:10265000FEF76AFA08B172B6FEE70F20CDE90A0567
:102660004FF48060CDE90C4002210AA80E94FEF7D9
:102670007FF9002801D072B6FEE70FB030BD704779
:102680000148FEF794BE0000E80200200148FEF772
:102690008EBE000030030020F0B50268194B1A4CC2
:1026A0001A4D4FF08047984205D0B84203D0A0425F
:1026B00001D0A84203D122F070064A683243984202
:1026C00005D0B84203D0A04201D0A84203D122F4E1
:1026D0004074CA6822434C6922F08002224302609F
:1026E0008A68C2620A688262984201D109690163FC
:1026F000012141610169C90703D0016921F001018C
:102700000161F0BD002C01400004004000080040C1
:1027100010B501F01F030121046A99408C43046243
:10272000016A9A401143016210BD10B5846842EA03
:10273000032224F47F440A432243826010BD82684E
:1027400022F070020A4342F007018160704710B521
:10275000036A046A24F001040462846924F0F0042A
:1027600044EA021423F00A020A438461026210BDA3
:1027700070B5056A046A24F00104046284690F4E8E
:10278000B04208D0B0F1804F05D00D4EB04202D01B
:102790000C4EB04203D124F00304144301E044F092
:1027A00001041A0724F0F00444EA126225F00A0337
:1027B00001F00A0119438261016270BD002C0140E1
:1027C000000400400008004010B5036A046A24F0C9
:1027D00010040462846923F0A00324F4704444EAE2
:1027E000023243EA01118261016210BD30B5046A10
:1027F000056A25F010050562856925F4407545EAEE
:10280000022222F470454FF6FF7202EA033224F0EE
:10281000A0032A43A02404EA011119438261016242
:1028200030BD000070B5044600680169E26821F41B
:102830004051114301612169A0680843616908435F
:102840002168CA6841F20C639A430243CA60206857
:102850004169A26921F44071114341611E49206818
:10286000884202D1FEF72AF901E0FEF717F900EBE2
:10287000C00101EB0012606864218000B2FBF0F33C
:10288000B3FBF1F36FF018067343B2FBF0F5B2FB44
:10289000F0F605EB8305322303EB0515B5FBF1F5E7
:1028A000B6FBF1F605F0F00505EB0615B2FBF0F608
:1028B000B2FBF0F0B0FBF1F06FF01802504306EB02
:1028C000800003EB0010B0FBF1F0216800F00F0076
:1028D0002844886070BD0000003801402DE9F05F99
:1028E00004461D4616460F46B0F90000B4F90280B2
:1028F000B4F90490DDF828B002F0B4FADFF87CA057
:10290000514602F0D1F93860404602F0ABFA514628
:1029100002F0CAF93060484602F0A4FA514602F0CB
:10292000C3F92860164A39681648914201D9114600
:1029300002E0814200DD014639603168914201D9EF
:10294000114602E0814200DD014631602968914272
:1029500001D9104602E0814200DC08462860A079D7
:10296000092800D909208BF80000E079642800D9F3
:1029700064200B990870BDE8F09F00000000204122
:10298000000033C300003343FEE74100080218BFD4
:1029900004200A0E18BF40F001004FF07F4232EAD7
:1029A000010108BF40F00200012808BF0520704760
:1029B0000907090E002804DB00F1E02080F800146C
:1029C000704700F00F0000F1E02080F8141D704700
:1029D000012102F0A8BC02F0FFB80021084602F075
:1029E00063B96FF05E01080702F09DBC2DE9F04D60
:1029F0000D4614464FF07F41B1EB440F9EBF4FF0A0
:102A0000FF312960BDE8F08D4FF0004040EA04211D
:102A1000C4F3C750783810F01F024A4B4FEA601CCD
:102A2000C2F120067B44C4F3C750A0F178004FEAFE
:102A3000601003EB800053F82C3008BFD0E901C6CA
:102A400012D0D0F804C093402CFA06F73B438768B5
:102A50000CFA02FC27FA06F8C06807FA02F2F04006
:102A60004CEA080C42EA0006A3FB0132ACFB01C0B1
:102A7000A6FB016101EB0C068E4234BF4FF0010C46
:102A80004FF0000CC1186144BCF1000F02D081422C
:102A900002D903E0814201D2012000E0002010446D
:102AA00000F120024FEA92188006CA0C40EA423038
:102AB0004F03C5F8008002F0D5F98246384602F08F
:102AC000E9F96FF0120102F02EFC0746304602F0E1
:102AD000E1F96FF0250102F026FC834639465046A5
:102AE00002F07AF8594602F077F800F500666FF3C5
:102AF0000B065146304602F06FFB394602F06CFB84
:102B0000594602F0D7FA104902F0D8F907460F49A2
:102B1000304602F0D3F9394602F05EF807460C4918
:102B2000304602F0CBF9394602F056F814F0004F67
:102B300008BFBDE8F08DC8F1805180F000402960E9
:102B4000BDE8F08DF4310000DB0FC92F22AAFD296A
:102B50000000C92F704700002DE9F04104464FF0F6
:102B60000E4000EB4400B0F1506F204655D84FF0B6
:102B7000FC41B1EB440F1CD224F000404FF07E51D9
:102B800002F098FA4FF0FF3102F0CDFB054601F05C
:102B90009DF914F0004F1DBF2F4F304E80F00040C4
:102BA0002F4F08BF2F4E4FF0404102F087F90446E7
:102BB00005E000273E46014602F080F905462A4915
:102BC000284602F07BF9294902F006F8294602F06E
:102BD00075F9274902F000F8294602F06FF92549F6
:102BE00001F0FAFF294602F069F9234901F0F4FFE8
:102BF00080462946204602F061F9414602F05EF91E
:102C000005463146204601F0E7FF294601F0E4FF82
:102C10003946BDE8F04101F0DFBF4FF0E441B1EBD0
:102C2000440F08D9FFF7B1FE042808BFFFF7D9FE0B
:102C30002046BDE8F0814FF07F41B1EB440F03D255
:102C4000BDE8F041FFF7C4BE0120FDF740FBBDE841
:102C5000F041FFF7C2BE00000000C9BF22AAFDB9C3
:102C60000000C93F22AAFD3924FE1C3DC78AD83C7A
:102C70001E67383D1B93993DAFAA2A3E2DE9F047C8
:102C80004FF0684202EB40030C460546B3F1654F36
:102C90003CBF02EB4102B2F1654F7CD2C0F3C75397
:102CA000C1F3C7529A1A1B2A06DD10F0004F14BF59
:102CB00076487748BDE8F08712F11A0F17DA11F05D
:102CC000004F06D010F0004F0CBF72487248BDE8AC
:102CD000F0872146284601F0E7FF0446FFF755FE3E
:102CE000042808BFFFF77DFE2046BDE8F0874200BC
:102CF000B2EB410F25D910F0004F19BF674F684E56
:102D0000684F694E224685F0004415460A4680F019
:102D1000004110460A1A5200B2F1807F40D248406A
:102D20006249DFF88CA110F0004F18D04FF03F48F7
:102D3000384602F051FA07465146304602F04CFA46
:102D400017E011F0004F04BF00263746E2D010F024
:102D5000004F19BF574F584E584F594EDAE74FF0B2
:102D60007C58384601F038FF07465146304601F09E
:102D700033FF06464146284602F0A0F8214601F0FE
:102D80002BFF82462146404602F098F8294602F081
:102D900091F9514600E037E001F086FF044604E077
:102DA0002146284601F080FF0446014602F086F8DD
:102DB0008046444902F082F8434901F00DFF414644
:102DC00002F07CF8414901F007FF414602F076F835
:102DD0003F4901F001FF414602F070F83D4901F022
:102DE000FBFE05464146204602F068F8294602F0FF
:102DF00065F8314601F0F0FE214601F0EDFE39465E
:102E0000BDE8F04701F0E8BE4FF07F42B2EB400F63
:102E100028BFB2EB410F03D2BDE8F047FFF7DBBD9F
:102E200040EA01035B0008BF44F0FF410AD0B2EB67
:102E3000400F08BFB2EB410F06D125F0804024F0CF
:102E4000804105460C4629E7B2EB400F12BF5FEA0E
:102E5000410245F0FF4004F000413FF41FAF4A003B
:102E600092EA40033FF51AAF002AACBF4FF09F46ED
:102E70004FF03E56314602F021F8054631462046D5
:102E800002F01CF804462846214607E7DB0FC9BFBD
:102E9000DB0FC93FDB0F4940DB0F49C00000C9BF52
:102EA00022AAFDB90000C93F22AAFD390060ED3E0B
:102EB000C30ACE37000049C022AA7DBA00004940AB
:102EC00022AA7D3A2DAD65BD8FB8D53D0FB511BE97
:102ED00061C84C3EA8AAAABE10B501464FF07E506C
:102EE00001F0E2FE0149886110BD00008000002071
:102EF0002DE9F0412E4C21690F46384601F0DEFFE6
:102F0000E16805468846404601F0D8FF4FF07C5600
:102F1000314602F0CFF8294602F05EF90546384600
:102F2000616901F0CBFF07464146A06801F0C6FF8A
:102F3000394601F051FE2946FFF7A0FEE061216904
:102F4000A06801F0BBFF05466169E06801F0B6FFCB
:102F5000294602F041F9B10101F0B0FFFFF7FCFD95
:102F6000206261698846404601F0A8FF2169054654
:102F70000F46384601F0A2FF314602F09BF8294681
:102F800002F02AF905464146A06801F097FF06467F
:102F90003946E06801F092FF314601F01DFE2946F6
:102FA000FFF76CFE606201202070BDE8F081000038
:102FB000800000202DE9F843044602464F48694648
:102FC000B0EB420F09D94FF0E640B0EB420F94BF8F
:102FD00000204FF0FF30009030E0494B22F00040DD
:102FE000834271D94749204601F068FF02F032F868
:102FF000804601F01BFF00F003000090424940466C
:1030000001F05CFF05464149404601F057FF064686
:103010003F49404601F052FF07463E49404601F015
:103020004DFF214602F046F8394602F0D5F8314608
:1030300002F0D2F8294602F0CFF804462546009C5B
:10304000002C45DB294614F0010F08461CD001F086
:1030500035FF0646304901F031FF304902F02AF8C9
:10306000314601F02BFF2E4901F0B6FD314601F04B
:1030700025FF294601F022FF294601F0ADFD14F09D
:10308000020F1CD0BDE8F88301F018FF0546254962
:1030900001F014FF244901F09FFD294601F00EFFC5
:1030A000224901F099FD294601F008FF4FF07E51B9
:1030B00001F092FD14F0020F08BFBDE8F88380F024
:1030C0000040BDE8F883FFE71046FFF78FFCB4E748
:1030D0006800B0F17F4F3CBF4FF07E50BDE8F883F1
:1030E00007D14FF00100FDF7F2F8BDE8F843FFF714
:1030F00074BC2846BDE8F843FFF76ABCB61F927E51
:10310000490E494683F9223F1A61342C0020A2332C
:1031100000A0FD390000C93F336D4C39DA82083C0C
:10312000A0AA2ABEB93AB2BACA9F2A3DDDFFFFBEA5
:1031300070B500F083F9104D104C2969206802F039
:103140004BF820606969606802F046F86060A96920
:10315000A06802F041F8A060E969E06802F03CF87C
:10316000E060296A206902F037F82061696A6069C5
:1031700002F032F8606170BD28000020D00200200B
:103180002DE9F047264DDFF89C90DFF89CA0274CF6
:10319000002600BF00F052F92968206901F01CFDEB
:1031A00020616968606901F017FD6061A86801F03D
:1031B000E7FC4A46534601F0F9FB07468846A069FA
:1031C00001F0DEFC3A46434601F026F901F0F2F840
:1031D000A061E968E06901F0FFFCE0612969206A0B
:1031E00001F0FAFC20626969606A01F0F5FC606236
:1031F0000A20FDF7D5F8761CF6B2642ECAD30C4F20
:10320000002500BF04EB85063946306901F04CFD0E
:103210006D1CEDB23061062DF4D3BDE8F0870000DF
:10322000D002002014AE47E17A9423402800002009
:103230000000C8422DE9FE4F91460A4682464FF0F3
:10324000FF359B462946104602F06DF801F098FCC8
:10325000444E454F32463B4601F00EFA01F0AAF8C3
:103260008046FFF7A7FE414C2060404600F06AFD13
:1032700060602946484602F056F801F081FC32466B
:103280003B4601F0F9F901F095F88046FFF792FE10
:10329000A060404600F056FDE0602946584602F026
:1032A00042F801F06DFC32463B4601F0E5F901F0D1
:1032B00081F80546FFF77EFE2061284600F042FDBA
:1032C0006061E16806468B4601F0F8FD6168804662
:1032D000019101F0F3FDA1680546029120690746BE
:1032E00001F0ECFD21688146009101F0E7FD2946DF
:1032F00001F072FC05465946384601F0DFFD0746ED
:10330000019901F0DBFD04463046029901F0D6FD3B
:103310000646009901F0D2FD214601F05DFF04460A
:103320003046019901F0CAFD06463846009901F081
:10333000C5FD314601F050FC07464046009901F0BA
:10334000BDFD06464846019901F0B8FD314601F041
:1033500043FFCAF80870CAE90054CAF80C00BDE877
:10336000FE8F00006811F16346DF913FA800002046
:10337000F0B5044601EBD17093B040104142ADF876
:103380000010ADF80410ADF80210ADF80600ADF86D
:103390000810ADF80C10ADF81010ADF81400ADF831
:1033A0001800ADF80A10ADF80E00ADF81200ADF837
:1033B0001610ADF81A10ADF81C00ADF82010ADF8DD
:1033C0002410ADF82800ADF82C00ADF81E10ADF8B3
:1033D0002200ADF82600ADF82A00ADF82E00182224
:1033E00015490CA8FCF711FF0021684603270CAB18
:1033F00001EB410201EB810530F8126024F8156001
:1034000000EB420604EB4505B6F802C0A5F802C081
:10341000B688AE806F72002602EB030205EB060E43
:1034200012F806C0761C8EF806C0032EF6DB491C87
:103430000829DDDB13B0F0BDF85B00082DE9FC5F67
:103440006D49881ECDE90001831E021F811F0838C7
:10345000FEF7F3F868480A38B0F9000001F002FD01
:103460006FF00E0101F05FFF042101F05CFF01F03D
:1034700087FB624A624B01F0FFF8624E4FF0333532
:103480002A46334601F0F8F8DFF87CB15F4B5A4624
:1034900001F0F2F800F08EFF5D4C206056480A38CB
:1034A000B0F9020001F0DEFC6FF00E0101F03BFF0D
:1034B000042101F038FF01F063FB504A504B01F04A
:1034C000DBF82A46334601F0D7F85A464F4B01F055
:1034D000D3F800F06FFF606047480A38B0F9040085
:1034E00001F0C0FC6FF00E0101F01DFF042101F09E
:1034F0001AFF01F045FB414A414B01F0BDF82A4655
:10350000334601F0B9F85A46404B01F0B5F800F0E7
:1035100051FFA06038480A38B0F9060001F0A2FC5B
:103520006FF00E0101F0FFFE3A4D294601F0C6FC96
:1035300001F026FB384E0022334601F09DF8374F4C
:10354000DFF8DCA03A46534601F096F8DFF8D48065
:10355000DFF8D49042464B4601F08EF85A462B4B8A
:1035600001F08AF800F026FFE06023480A38B0F93D
:10357000080001F077FC6FF00E0101F0D4FE29463F
:1035800001F09CFC01F0FCFA0022334601F074F8D3
:103590003A46534601F070F842464B4601F06CF84B
:1035A0005A461A4B01F068F800F004FF20611248F7
:1035B0000A38B0F90A0001F055FC6FF00E0101F075
:1035C000B2FE294601F07AFC01F0DAFA0022334615
:1035D00001F052F83A46534601F04EF842464B4647
:1035E00001F04AF85A46094B01F046F800F0E2FEB5
:1035F0006061BDE8FC9F00000A0000209A9999993B
:10360000999923403333F33F0B7C71F5838E12403D
:10361000D00200200000FA4400000C4030E80BFA11
:1036200082BEE03F499224499224F13F10B5054CF7
:10363000207808B9FFF75CFC206ABDE81040024919
:1036400001F03CBC80000020E12E654210B5054C25
:10365000207808B9FFF74CFCE069BDE8104002494A
:1036600001F02CBC80000020E12E654210B5054C15
:10367000207808B9FFF73CFC606ABDE810400249B9
:1036800001F01CBC80000020E12E65420B490020A7
:1036900000EB400201EB4202127942B100EB400321
:1036A00001EB430100220A710549085C7047401C88
:1036B000C0B20428ECD3042070470000C0070020EB
:1036C000105C000830B4194CA4F11800A0F11801E6
:1036D000C460A0F13002CC60A0F14803D460DC608B
:1036E000783CE060183CE060183CE060183CE0602A
:1036F000C038C1601838C1601838C1601838C1605E
:103700001838C2601838C2601838C2601838C260F1
:103710001838C3601838C3601838C36018381421CB
:10372000C36030BC0248FFF723BE0000B002002097
:10373000D807002070B504464FF0FF3101F0F3FDCB
:1037400005461148A0EB64042146284601F0B6FB6B
:10375000214601F0B3FB4FF07F56314601F0AAFC41
:10376000214601F0ABFB04460146284601F0A6FBCA
:10377000214601F0A3FB314601F09CFC2146BDE847
:10378000704001F09BBB0000DF59375F1CB5FDF7AF
:1037900017F8FEF745FFFDF7F1FF4E484C490024AE
:1037A00001604FF4E131C0E901140C21C460C0E9AB
:1037B0000441846122462146C461FDF751F808B1F5
:1037C00072B6FEE7FEF74EF8FEF718F8FCF7D0FDEC
:1037D000FFF778FFFEF7F9FCFEF718FBFDF776FF21
:1037E0003D4E308801F056FB01463C4801F05CFA42
:1037F000FFF772FBFFF7C4FCFEF77CF9FCF780FED5
:1038000034483C214838FDF7CAFC32489038FDF76F
:10381000D9FB6420FCF7C4FD314FDFF8C880A6F166
:10382000280500BFFEF7F2FAD6E902123868401AFE
:1038300064EB02013288801AA1410FD33868C6E9CF
:103840000204FFF775FC2348A838D0E90112CDE93E
:10385000001203680C3007C800F04EFBFFF706FFAC
:103860002861FFF7E3FE6861FFF7F0FEA861696970
:10387000C5E908102869E86198F8000010B101282E
:1038800017D021E0E868806808B1804705E0082388
:1038900015A210214020FEF7FEFDFFF7F7FE1549A7
:1038A00008800146E86800F041F8E860FEF766FB32
:1038B0000AE0E868806808B1804705E008230AA2AA
:1038C00020214020FEF7E7FDFEF7FCFDAAE70000FF
:1038D00000380140780300202800002000007A44CE
:1038E0005C000020CA0200204E6F2046756E637493
:1038F000696F6E00CC0200200823102101A2402035
:10390000FEF7C9BD48656C6C6F000000010004D073
:10391000C86810B10069884202D100207047104683
:103920000028FBD042698A42F9D1704710B50400E3
:1039300007D041B1012909D0022909D0032911D1A9
:103940000DE0002010BDFFF7E1FF09E0606907E02E
:10395000206938B1806800B18047206910BDE068F7
:103960000028FBD1204610BD0823102101A24020D1
:10397000FEF791BD48656C6C6F00000008231021B4
:1039800001A24020FEF787BD48656C6C6F00000007
:1039900010B582F00042029C83F0004384F00044A2
:1039A00080E81E0010BD0FB42DE9F04F87B00C4623
:1039B00015A9DDF8509091E8800D15461E46594630
:1039C000484601F07BFA04905146304601F076FA01
:1039D00001904146284601F071FA00903946204690
:1039E00001F06CFA009901F0F7FB019901F0F4FB8A
:1039F000049901F0F1FB03905146484601F05EFA4C
:103A000000905946304601F059FA0190394628464F
:103A100001F054FA04904146204601F04FFA04990F
:103A200001F0DAF8019901F0D7F8009901F0D4FB20
:103A300004904146484601F041FA0190394630462B
:103A400001F03CFA00905946284601F037FA0590FB
:103A50005146204601F032FA059901F0BDFB00996C
:103A600001F0BAF8019901F0B7F8059039464846D7
:103A700001F024FA07464146304601F01FFA064697
:103A80005146284601F01AFA05465946204601F0EB
:103A900015FA294601F0A0F8314601F09DFB3946A0
:103AA00001F09AF80DF10C0C03469CE80700109CFD
:103AB00084E80F0007B0BDE8F00F5DF814FB0FB409
:103AC0002DE9F04F91B08B461FA9814691E8210462
:103AD00000271E9E01F0C6F90446284601F0C2F9EF
:103AE0008046504601F0BEF9DDE91C2305465946E3
:103AF000009609A8FFF74CFF0096CDE90174CDE9C7
:103B00000385DDE91C23594605A8FFF74CFF09ACE6
:103B100094E80F0001AC84E80F00089805AC009011
:103B200094E80E000DA8FFF73EFF0EAC94E80700E6
:103B3000C9E90001C9F8082011B0BDE8F00F5DF82F
:103B400014FB0000FEB5FFF7A1FD2C49012402285B
:103B50004FD003284FD00878012849D100210823ED
:103B600027A20846FEF797FC284D1023294928680C
:103B700080F0004226480068CDE90034264C0291CE
:103B800080F000403F232168FCF724FC6420009073
:103B9000224800231221B0F900201020FEF750FA2D
:103BA0000823452212210020FEF776FB082352222B
:103BB00022210020FEF770FB082350223221002032
:103BC000FEF76AFB206801F031F9282402466642BC
:103BD0003346222110200094FEF732FA286801F0C3
:103BE00025F902463346322110200094FEF728FAC8
:103BF000FEBD0C70B2E700200870FEBDCA020020B6
:103C0000466C79696E67204D6F6465002000002066
:103C10001C000020D807002024000020C80200203B
:103C20002DE9F04D07460E4600F05AFE04460D46BB
:103C30003A46334600F0AEFEDFF86CA0DFF86CB019
:103C40001B4B0746884616F0004F4FF000020AD083
:103C500000F0D6FC0AD900225B463846414600F007
:103C600009FE1BD212E000F0CBFC08D20022534622
:103C70002046294600F09AFE04460D460EE000223A
:103C80005B463846414600F0F5FD07D80022534612
:103C90002046294600F0C0FB04460D46314620462A
:103CA00065F31E01BDE8F08D0000F03F0000E03F2D
:103CB0000000E0BF2DE9F04700251F4E1F4F204CAC
:103CC0004FF00109A84600BF36F8151057F8250037
:103CD000FCF75EFD50B1002105EB450014F8102003
:103CE00032B1012A0CD0022A17D119E00121F3E7E1
:103CF000B9B104F8109004EB4000A0F8028010E085
:103D000059B104EB40014A88521C1204120C4A803B
:103D100007D0022104F8101003E004F8108000E03E
:103D200029B16D1CEDB2042DCED3BDE8F08704EBB4
:103D3000400282F80490F0E7145C0008C000002004
:103D4000C00700202DE9F843044602465248694660
:103D5000B0EB420F09D94FF0E640B0EB420F94BFF1
:103D600000204FF0FF30009030E04C4B22F000403C
:103D7000834271D94A49204601F0A0F801F06AF95E
:103D8000804601F053F800F003000090454940469A
:103D900001F094F805464449404601F08FF8064684
:103DA0004249404601F08AF807464149404601F041
:103DB00085F8214601F07EF9394601F00DFA3146C9
:103DC00001F00AFA294601F007FA04462546009C4C
:103DD000002C45DB294614F0010F08461ED001F0E7
:103DE0006DF80546334901F069F8334900F0F4FEF7
:103DF000294601F063F8314900F0EEFE294601F052
:103E00005DF84FF07E5100F0E7FE14F0020F08BF9E
:103E1000BDE8F88380F00040BDE8F88301F04EF87B
:103E20000646274901F04AF8264901F043F9314690
:103E300001F044F8244900F0CFFE314601F03EF88D
:103E4000294601F03BF8294600F0C6FE14F0020FA7
:103E5000E0D1BDE8F883FFE71046FEF7C7FDB4E701
:103E60006800B0F17F4F09D22846FEF78EFD042886
:103E700008BFFEF7B6FD2846BDE8F88306D101204D
:103E8000FCF725FABDE8F843FEF7A7BD2846BDE8D4
:103E9000F843FEF79DBD0000B61F927E490E4946CD
:103EA00083F9223F1A61342C0020A23300A0FD398F
:103EB0000000C93FB93AB2BACA9F2A3DDDFFFFBE32
:103EC000336D4C39DA82083CA0AA2ABE70B505468B
:103ED00001F0FAF8044620F00040C0F1FF40C00FA6
:103EE00008D025F00040C0F1FF40C00F04BF012002
:103EF000FCF7EDF9204670BD2DE9FF4F99B09A46C9
:103F000015460E46FE4C214600F0D8FF834621465A
:103F1000304600F0D3FF1A902146284600F0CEFF2D
:103F2000F84C01461B906069039000F0C7FF0646FD
:103F30001A992069069000F0C1FFE768054687F0EE
:103F40000040594600F0BAFF294601F045F93146D4
:103F500001F042F94FF0FF38414601F0E4F905461F
:103F60001A99039800F0AAFF81461B99069800F061
:103F7000A5FF0646A1685846079100F09FFF31460D
:103F800000F02AFE494601F027F9414601F0CBF93D
:103F900006465846039900F091FF009038461B9959
:103FA00000F08CFF81461A99079800F087FF494678
:103FB00001F012F9009900F00FFE414601F0B3F94B
:103FC00081465846069900F079FF834638461A998B
:103FD00000F074FF07461B99079800F06FFF394601
:103FE00000F0FAFD594601F0F7F8414601F09BF95F
:103FF00007461AF0FF4F07D1269810F0FF4F03D164
:10400000279810F0FF4F7CD02799084600F056FF04
:1040100026998346084600F051FF804651460846DF
:1040200000F04CFF414600F0D7FD594600F0D4FDAA
:10403000FFF780FB80460146504600F03FFF1C9092
:104040004146269800F03AFF26904146279800F016
:1040500035FF2790A0680121804601F064F9169091
:10406000E06801210E9001F05EF9149020690121B1
:104070000D9001F058F9159060690121059001F04B
:1040800052F917900221404601F04DF90B900221A0
:104090000E9801F048F9824602210D9801F043F98B
:1040A000079003210E9801F03EF90A9003210D9824
:1040B00001F039F941460990084600F0FFFE0E99DB
:1040C0001290084600F0FAFE0D990190084600F0A3
:1040D000F5FE00900599084600F0F0FE089026993C
:1040E000149800F0EBFE109001990B9800F0E6FE9A
:1040F00083461C99159800F0E1FE804600990B98C4
:1041000000E0F5E000F0DAFE414600F065FD5946BA
:1041100000F062FD109901F05FF80B90504627996E
:1041200000F0CCFE109000990A9800F0C7FE0F90A6
:1041300001990A9800F0C2FE11902699169800F095
:10414000BDFE0A900221129801F0EDF883460E9907
:1041500000F0B4FE80461C99179800F0AFFE139053
:104160005046089900F0AAFE139901F035F841462F
:1041700000F032FD0A9901F02FF8514601F02CF8B9
:10418000119900F029FD0F9900F026FD109900F01B
:1041900023FD82462799079800F090FE0A90009927
:1041A000099800F08BFE0E900199099800F086FEA8
:1041B00009902699179800F081FE0F90DDE907011C
:1041C00000F07CFE11901C99169800F077FE804656
:1041D00058460D9900F072FE414600F0FDFC119921
:1041E00000F0FAFC0F9900F0F7FF079900F0F4FFD8
:1041F000099900F0F1FC0E9900F0EEFC0A9900F02C
:10420000EBFC83462699159800F058FE0890022191
:10421000009801F088F8059900F050FE80461C993E
:10422000149800F04BFE09900221019801F07BF8F0
:10423000059900F043FE099900F0CEFF414600F0D9
:10424000CBFC089900F0C8FF8046014600F036FE1E
:1042500059460090084600F031FE51460890084645
:1042600000F02CFE0B990990084600F027FE0999F2
:1042700000F0B2FC089900F0AFFC009900F0ACFC33
:10428000FFF758FA014600900B9800F017FE0B90CC
:104290005046009900F012FE82465846009900F000
:1042A0000DFE83464046009900F008FE8046606897
:1042B0000B99009000F002FE294600F0FBFE054637
:1042C0005146009800F0FAFD314600F0F3FE064634
:1042D0005946009800F0F2FD494600F0EBFE814699
:1042E0004146009800F0EAFD394600F0E3FE07463B
:1042F000A16928468A4600F0E1FDA16804E00000BB
:1043000039FA8E3C8000002000F066FC8046A060F8
:104310005146304600F0D2FDE16800F05DFC0646F3
:10432000E0605146484600F0C9FD216900F054FCA8
:10433000054620615146384600F0C0FD616900F035
:104340004BFC0146606100F0B9FD0746294608466E
:1043500000F0B4FD05463146084600F0AFFD0646C4
:104360004146084600F0AAFD314600F035FC2946DA
:1043700000F032FC394600F02FFCFFF7DBF9054670
:104380000146A06800F09AFDA0602946E06800F0B0
:1043900095FDE0602946206900F090FD20612946E6
:1043A000606900F08BFD6061002020701DB0BDE8E9
:1043B000F08F000021F00042A2F16052B2F5801FA0
:1043C00001F0004328BFD2F17F6C0BD95FEA001CDB
:1043D00043EAC20242EB507018BF704728BF20F07A
:1043E00001007047B2F5801FBCBF184670474FEA06
:1043F000410C1CF5001F02D2084600F026BE70B525
:1044000000F0E4F900000089FFF7F6BF4FF000402C
:10441000A0F580007047000010B591EA030F48BF77
:1044200083F0004300F1CA82841A71EB030C05D2B9
:10443000121943EB0C03001B61EB0C01DFF824E1C4
:104440004FEA1154A4EB135C1EEA430F18BF9EEA17
:10445000445F73D023EA0E03DCF1200E21EA0451FD
:1044600043F4801332D322FA0CFE10EB0E0023FA31
:104470000CFE41EB0E01CCF1200E03FA0EFE10EB08
:104480000E0051F10001B1F5801FCCF1200E32D2A7
:1044900001EB045112FA0EF2BDE8104058BF70470C
:1044A000401C38BF5FEA420218BF7047002814BFA3
:1044B00020F0010041F100014FEA410313F5001F14
:1044C00038BF7047A1F1C04100F0CEB9012A43EBDB
:1044D0000302ACF1200CDCF11F0E32BF4FF0000ED6
:1044E00023FA0CF310EB030041EB0451B4EB115F22
:1044F000D0D0A1EB045101F5801149085FEA3000EA
:1045000001EB04510ED350F1000038BF12FA0EFE39
:1045100008D1BDE81040C9E7401C38BF5FEA42023D
:10452000CAD1C3E7BDE810404FEA410313F5001FAD
:1045300038BF7047A1F1C04100F096B99EEA445FD0
:1045400008D011EA5E0FBDE8104004BF01F0004141
:1045500000207047BDE8104070B500F037F900BF8B
:1045600064FBBE3E0000E0FF491058BFC1F140416E
:104570005B1058BFC3F140438B42EFF3008070479C
:104580004FEA1153A3F58063D3F11E03A8BFD3F103
:10459000200C08DB4FF0004242EAC12252EA50529E
:1045A00032FA03F0704709420BD4102BC4BF00202D
:1045B000704703F5787CBCF1FF3F05D04FF0FF302A
:1045C00070474FF00000704770B500F0FFF800BF73
:1045D0004992248000207047F0E7B0FA80F310FA87
:1045E00003F10AD0C3F11D0303F580634FEA415084
:1045F0004FEA035202EBD12170474FF000007047A1
:1046000051EA030C17D41CF5801F58BFBCF5801F5E
:1046100000F10680994218BF704708BF904270476A
:1046200007D711F5801F58BF13F5801F19D4994281
:104630007047894270471CF5801F08D5BCF5801F64
:10464000F7D58B4218BF704708BF824270474FF4BE
:10465000001C1CEB410F38BF1CEB430F01D28B42F7
:10466000704770B500F0B2F8922449004FF0005145
:104670004FF08053FFF778BFDFF848C170B51CEAF0
:10468000111E1EBF1CEA13159EEA0C0F95EA0C0FB3
:1046900000F06F8081EA030423EA4C134EEAD47ED3
:1046A00021EA4C1141F4801143F48013AE44A1FB84
:1046B000024CA0FB0365AEF17F7E361955EB0C056D
:1046C000A1FB034C4CF10003A0FB021C16EB0C06F3
:1046D000654153F10003094218BF46F0010613F487
:1046E000007F0BD14FEA03314FEA0530340341EA32
:1046F000155140EA16506FF003020AE04FEAC32159
:104700004FEAC520F40241EA555140EA56506FF095
:10471000020202EB2E4201EB025585EACE710AD06D
:104720005FEA440C18BF24F0004450F1000041F14E
:10473000000120EAD47040F2FE7C624500D270BDD8
:10474000A84214BF4FF080444FF04044002E08BFF1
:104750000024BEF1806FA8BFA1F1C041BDE8704048
:1047600080F282804FF0000001F1C04101F0004171
:1047700070479EEA0C0F0CEA131518BF95EA0C0F50
:1047800006D04FF0000081EA030E0EF0004170BD2C
:1047900000F01CF88900013E00F007B800F009B8ED
:1047A0004FEA430C5FEA5C5C08D081EA030100F049
:1047B0005BB84FEA410C5FEA5C5CF6D14FF0000059
:1047C000014970470000FF070000F87F0EF1020E5C
:1047D0002EF0030E5EF8046B364205D4012A43EB3B
:1047E000030515F5001F12D8012841EB010C1CF53B
:1047F000001F0CD80ED14FEAD17C15F5001F0CEB31
:104800004C0C0CF1020C08BF4CEBD37C04E04FF0D5
:10481000080C01E04FEAD37C0CEB4C0526FA05F6B8
:1048200006F00706B6F1040C06D20EEB860CBDE8C6
:1048300070404CF0010C6047DFE80CF0090B0202FD
:104840004FF000414FF00000A1F5002170BD194666
:104850001046012851EB010418BFD4F5001484BFA1
:10486000002001F0004170BD0808A0F500114FEADA
:104870003101704753EA010C17D41CF5801F58BF53
:10488000BCF5801F00F106808B4218BF704708BF3F
:104890008242704707D713F5801F58BF11F5801F5C
:1048A00019D48B4270479B4270471CF5801F08D576
:1048B000BCF5801FF7D5994218BF704708BF9042DA
:1048C00070474FF4001C1CEB430F38BF1CEB410F2B
:1048D00001D2994270470FB40CBC03BCFFF7C1BEB4
:1048E0005FEA410C5FEA5C5CACF580635B1C39D429
:1048F000D3F1340240F34580B2F1200314DA4FF0D3
:10490000010C0CFA02FCACF101030340B3EB5C02B6
:1049100020EA030008BF10EA0C0F98BF704710EBA5
:104920000C0041F1000170470AD0C3F1200201FAE6
:1049300002FC012821FA03F101FA03F14CF1000015
:104940004FF0010C0CFA03FCACF10103B0F1004F85
:1049500021EA030108BF11EA0C0F4FF0000088BFE5
:1049600061447047B3F1FF3F28BF50EAC12C01F00A
:1049700000414FF0000084BF41F07C5141F47001D0
:104980007047B3F5806FB8BF704770B5FFF71EFF73
:1049900040DBB6BE91EA030F10B581F000413FF550
:1049A00043AD83F0004300F009B8000010B591EA70
:1049B000030F48BF83F000433FF536AD841A71EB17
:1049C000030C07D212198CF0004C43EB0C03001BB4
:1049D00061EB0C01DFF8A4E14FEA1154A4EB135C86
:1049E0001EEA430F18BF9EEA445F00F0B08023EA3E
:1049F0006E03524221EA0451C3EB6E0338BF5B1EC3
:104A0000DCF1200E25D322FA0CFE10EB0E0043FA47
:104A10000CFE41EB0E01CCF1200E03FA0EFE10EB62
:104A20000E0051F10001CCF1200E29D412FA0EF241
:104A300001EB0451BDE8104058BF7047401C1CBF3B
:104A4000B2F1004F704700280CBF491C20F0010054
:104A5000704712EB020E43EB030218BF4FF0010E3A
:104A60004EEA4202ACF1200CDCF11E0E54D943FA9E
:104A70000CFE10EB0E0051F1FF31CCF11E0ED5D51E
:104A80000EF1010E12FA0EFE404141EB010101EB65
:104A9000445C5FEA5C5C10D910EBDE7001EB045102
:104AA00038BFBEF1004FBDE8104018BF7047002866
:104AB0000CBF491C20F00100704730D24FEAD42CC3
:104AC00011F5001124F400641BD0B1FA81F20B3A05
:104AD000A41AA41ED2F12003914030FA03F3194323
:104AE000904001EBCC71002C01EB0451BDE810406B
:104AF000A8BF704701F1C0414FF0000001F0004134
:104B00007047B0FA80F310FA03F100D110BDE41A37
:104B1000173C4805C90AE4E701EB045110BD4910F0
:104B200001EB0451BDE810404FEA300002E04FF0C5
:104B3000000170474A0008BF0042F8D0B2F5001FDC
:104B400028BF704701F000414FF0000070479EEA17
:104B5000445F07D011EA5E0FBDE8104004BF00219A
:104B600000207047BDE8104070B5FFF72FFE00BF72
:104B700040DFF63E83F00041104670470000E0FF42
:104B800043004FEAD30C4FEA3C0C43401FBF4007A1
:104B90000CF1605113F0FE4F70471CF0006F03D111
:104BA00000200CF0004170470CF0004343EA5070C5
:104BB00010B540EACC0000F002FA00BF00000092FD
:104BC0004FEA0001FFF750BE4FF000414FF00000E8
:104BD000A1F500217047000090EA010F48BF81F065
:104BE000004100F10083421A3CBF801A89184FEA45
:104BF000D0524FF07F4C1CEA410FA2EBD15318BFAB
:104C00009CEA026F00F03B804FF0004C4CEA002021
:104C10004CEA012121FA03FC10EB0C0C1ED202F12C
:104C2000FF325FEA1C2040EBC25038BF70471CF0D7
:104C30007F0F4FEA400C18BFBCF17F4F38BF704761
:104C4000C3F12003994008BF20F00100BCF17F4F61
:104C500038BF7047A0F1C04000F0F7B94FEA3C0000
:104C6000000A40EBC25028BF1CF0FF0F4FEA400C77
:104C7000E6D018BFBCF17F4F38BF7047EAE79CEA27
:104C8000026F05D010EA5C0F08BF00F000407047CB
:104C900010B500F094F900BF64FBBE3E014800F07F
:104CA00010BB00BF0000C07F4FF47F0C1CEAD01285
:104CB0001EBF1CEAD11392EA0C0F93EA0C0F00F00E
:104CC000858090EA010F48BF42F4807240F4000CE6
:104CD00041F400002CF07F4120F07F4000B581427C
:104CE000A2EB03020FF2081CACEB504EC0F1000027
:104CF0009EF800E04FEA4E0E00FB0EFC38BF490064
:104D00004FEA2C1C02F5FA020CFB0EF34FEACE1E02
:104D10004FEA112C4FEAC1210EEB635E42EB2242B7
:104D20000EFB0CFC4FEA1C5300FB03114FEA112C45
:104D30004FEA01310EFB0CFC4FEADC4C00FB0C117E
:104D4000C14228BF09184CEB03335DF804EB10EBAC
:104D5000410143EBC250B2F57C0F38BF704729D5F3
:104D600012F0F00F1CBF00F1C04000F0004070478F
:104D7000008182838485868788898B8C8D8E8F9134
:104D80009293959697999A9C9D9FA0A2A3A5A7A858
:104D9000AAACAEB0B2B3B5B7B9BCBEC0C2C5C7C984
:104DA000CCCED1D4D7D9DCDFE2E6E9ECF0F3F7FAE8
:104DB000FE0000004FEA400C0CF1807CBCF17E4FFD
:104DC00028BF7047B0F1C04000F03FB990EA010F32
:104DD0000CEAD11348BF42F48072624538BF634584
:104DE00007D213F47F0F16D080EA010000F00040D4
:104DF000704710B500F0E3F8097EFC3E00F005B8FE
:104E000080EA010000F00040704780EA010000F0F5
:104E1000004000F01AB912F47F0F04BF0248704737
:104E200080EA010000F011B90000C07F41000B0EC4
:104E3000D3F19E0208D950F400034FEA032323FA6A
:104E400002F048BF4042704710B500F0B8F800BF0C
:104E500049922480002070476FF0004282EA2000CF
:104E60007047000010F0004148BF4042B0FA80F3A4
:104E700010FA03F2C3F19D030BD051EAC35101EBC9
:104E80001220530638BF704700F1010008BF20F020
:104E900001007047B0FA80F310FA03F2C3F19D03EA
:104EA0000AD0D90501EB1220530638BF704700F134
:104EB000010008BF20F00100704700004FF47F0C94
:104EC0001CEAD0121EBF1CEAD11392EA0C0F93EA1F
:104ED0000C0F00F0478090EA010F48BF42F4807247
:104EE0004FF0004C4CEA00204CEA012102EB030297
:104EF000A0FB0113A2F50002002918BF43F0010333
:104F00005B0028BF4FEA330342EB22425FEA132CD7
:104F10004CEBC2502EBFBCEB436FB2F57C0F704719
:104F20004FEA036CBCF1004F08BF20F00100B2F55E
:104F30007C0F38BF70470BD582F0FF0212F5803F1F
:104F4000C8BF704700F1C040D8BF00F000407047B4
:104F500000F5000C5FEA4C0C48BF7047B0F1C04050
:104F600000F073B890EA010F0CEAD11348BF42F485
:104F70008072624538BF634504D280EA010000F0C8
:104F80000040704710B500F01AF800BF8900013EDC
:104F900000F007B800F009B85FEA410C5FEA1C6C4A
:104FA00008D080EA010000F050B85FEA400C5FEAE8
:104FB0001C6CF6D14FF00040A0F5800070470EF158
:104FC000020E2EF0030E5EF8044B244204D44FEA86
:104FD0004102B2F17F4F11D84FEA4003B3F17F4F46
:104FE0000CD80ED14FEAD07CB2F17F4F0CEB4C0CB9
:104FF0000CF1020C08BF4CEBD17C04E04FF0080C24
:1050000001E04FEAD17C0CEB4C0324FA03F404F0EA
:105010000704B4F1040C06D20EEB840CBDE810407A
:105020004CF0010C6047DFE80CF0070802024FF07B
:105030000040A0F5800010BD0846420018BFD2F124
:10504000807288BF00F0004010BDFF2141EAD050BF
:10505000C00570475FEA400C5FEA1C6CBCF17F033F
:1050600014D4D3F1170240F31C804FF0010C0CFA5A
:1050700002FCACF101030340B3EB5C0220EA030045
:1050800008BF10EA0C0F88BF60447047B3F1FF3FC0
:1050900028BF5FEA002C00F0004088BF40F07E503F
:1050A0007047BCF1FF0FB8BF704710B5FFF787FF1F
:1050B00040DBB6BE80F0004090EA010F7FF593AD73
:1050C00081F0004100F08FB84FEAD051002988BF2D
:1050D000D1F1FF0240F2758001F17D014FEA00201D
:1050E00070B5490840F0004038BF40080EA2430E9A
:1050F000040CD25C02FB02F304FB03F3C3F1404354
:10510000A3FB0254ED0D45EA442202FB02F3A0FB8F
:1051100003546D42C4F1404438BF641EA2FB053500
:105120000023E2FB0453EA0B42EA4342A0FB0232B3
:1051300012F14004A2F12103E40903F07F031F2BC5
:1051400032D904EBC15070BDFEFAF7F3F0ECE9E69A
:10515000E4E1DEDCD9D7D4D2D0CECCCAC8C6C4C232
:10516000C1BFBDBCBAB9B7B6B4B3B2B0AFAEACABE9
:10517000AAA9A8A7A6A4A3A2A1A09F9E9E9D9C9B0E
:105180009A999897979695949393929190908F8EE1
:105190008E8D8C8C8B8A8A89898887878686858480
:1051A000848383828281818004FB04F6B6EB00460F
:1051B00003D5E64248BF641CC3E7A64258BF641C3F
:1051C000BFE711F0FF0F02D100F00040704710B5AB
:1051D000FFF7F5FE7FDBFFBE90EA010F48BF81F0CD
:1051E00000413FF500AD421A04D882F00042A0EB26
:1051F000020011444FEAD0524FF07F4C1CEA410F9D
:10520000A2EBD15318BF9CEA026F4AD04FF0004C7A
:105210004CEA00204CEA012121FA03FCB0EB0C0C13
:105220000FD412F0FE0F36D05FEA4C001DD50012ED
:1052300040EBC25038BF70471CF03F0F18BF70479B
:105240000BE0A2F101025FEA1C2040EBC25038BF24
:1052500070471CF07F0F18BF7047C3F120039940BF
:1052600014BF401E20F00100704780084FEA12234F
:1052700008BF7047B0FA80FCA2EB0C02CCF1280CFE
:1052800060FA0CF093EA122F04BF00EBC250704793
:105290004FEAC3707047130A5FEADC1008BF70471B
:1052A000F6E79CEA026F04D010EA5C0F08BF00200A
:1052B000704710B5FFF783FE40DFF63E81F00040F7
:1052C00070470CF00F03092B08BF082000F0518035
:1052D0000A2B0BD0082B18BF704708BF1CF0400FDB
:1052E0000AD04FF000004FF0000170471CF0400F53
:1052F00018BF4FF0004070471CF0100F08D020F08E
:10530000704300F07F4242EAD3014FEA4370704796
:1053100000F0604021F07F4242EA000201F07F404D
:1053200040EA727070474FF0FF0212EAD0521CBF81
:1053300092F0FF038B42C2BFD14200EBC1507047D5
:10534000002A0AD0002B0BD0002900F00040A4BF97
:1053500040F0FE4040F40000704700F0004070470D
:1053600043024FF00B0C18BF4CF0806C7FF496ACEE
:1053700070471CF4801F11D01CF4E02F03D06FEA9B
:10538000CC31490070474FF04050EFF3008222F0DB
:10539000704242EA000282F3008870474FF000003A
:1053A0007047010202030405060708090A0B0C0DE9
:1053B0000E0F1010000000000000000001020304A6
:1053C00006070809000000000102030400000000B5
:1053D000000000000000000000000000000000F8D5
:1053E00000000000000000333000000000160E0036
:1053F000160E0000000000000000000040C07840D1
:10540000C0784000043F04043F040400007088FC9E
:1054100008300000001820FF211E0000F008F000F6
:10542000E018000000211C031E211E0000F0088867
:10543000700000001E2123241927211000000016EF
:105440000E0000000000000000000000000000E06E
:105450001804020000000007182040000002041891
:10546000E00000000040201807000000404080F0ED
:10547000804040000202010F01020200000000F023
:10548000000000000101011F0101010000000000F7
:105490000000000000B070000000000000000000EC
:1054A00000000000000101010101010100000000F5
:1054B000000000000030300000000000000000008C
:1054C00080601804006018060100000000E0100869
:1054D0000810E000000F102020100F00001010F83E
:1054E000000000000020203F20200000007008087D
:1054F00008887000003028242221300000300888FD
:10550000884830000018202020110E000000C02024
:1055100010F8000000070424243F240000F8088845
:10552000880808000019212020110E0000E01088D2
:1055300088180000000F112020110E000038080804
:10554000C83808000000003F000000000070880814
:1055500008887000001C222121221C0000E0100895
:105560000810E0000000312222110F00000000C0EE
:10557000C00000000000003030000000000000C04B
:10558000C0000000000080B07000000000008040FB
:105590002010080000010204081020004040404094
:1055A00040404000040404040404040000081020E7
:1055B000408000000020100804020100007048082C
:1055C0000808F0000000003036010000C030C82894
:1055D000E810E0000718272423140B000000C0384F
:1055E000E0000000203C23020227382008F88888C9
:1055F00088700000203F202020110E00C0300808D5
:1056000008083800071820202010080008F80808AB
:105610000810E000203F202020100F0008F88888A4
:10562000E8081000203F20202320180008F8888870
:10563000E8081000203F200003000000C0300808E8
:105640000838000007182020221E020008F8080071
:105650000008F808203F210101213F20000808F838
:10566000080800000020203F20200000000008085B
:10567000F8080800C08080807F00000008F888C01B
:1056800028180800203F20012638200008F80800CC
:1056900000000000203F20202020300008F8F80003
:1056A000F8F80800203F003F003F200008F830C015
:1056B0000008F808203F200007183F00E010080805
:1056C0000810E0000F10202020100F0008F8080834
:1056D0000808F000203F210101010000E010080847
:1056E0000810E0000F18242438504F0008F888886C
:1056F00088887000203F2000030C3020007088084C
:10570000080838000038202121221C00180808F859
:10571000080818000000203F2000000008F80800DA
:105720000008F808001F202020201F0008788800AB
:1057300000C83808000007380E010000F80800F81B
:105740000008F800033C0700073C030008186880C5
:105750008068180820302C03032C30200838C8003B
:10576000C83808000000203F20000000100808088A
:10577000C83808002038262120201800000000FE2C
:10578000020202000000007F40404000000C30C0D8
:1057900000000000000000010638C0000002020204
:1057A000FE000000004040407F0000000020100884
:1057B00004081020000000000000000000000000AD
:1057C00000000000808080808080808000020408CB
:1057D00000000000000000000000000000008080C9
:1057E000808000000019242222223F2008F8008037
:1057F00080000000003F112020110E0000000080FA
:1058000080800000000E1120202011000000008088
:105810008088F800000E112020103F2000008080BA
:1058200080800000001F222222221300008080F0CE
:10583000888888180020203F2020000000008080F9
:1058400080808000006B94949493600008F800803E
:1058500080800000203F210000203F200080989899
:10586000000000000020203F2020000000000080F9
:105870009898000000C08080807F000008F8000039
:1058800080808000203F24022D302000000808F88E
:10589000000000000020203F202000008080808049
:1058A00080808000203F20003F20003F008080005B
:1058B0008080000000203F2100203F2000008080E9
:1058C00080800000001F202020201F00808000809A
:1058D0008000000080FFA12020110E000000008049
:1058E00080808000000E112020A0FF80808080003A
:1058F0008080800020203F21200001000000808067
:10590000808080000033242424241900008080E05B
:10591000808000000000001F202000008080000028
:1059200000808000001F202020103F208080800009
:105930000080808000010E30080601008080008019
:10594000008080800F300C030C300F00008080003E
:10595000808080000020312E0E3120008080800069
:105960000080808080818E70180601000080808019
:10597000808080000021302C2221300000000000B7
:10598000807C020200000000003F40400000000058
:10599000FF00000000000000FF0000000002027C89
:1059A000800000000040403F0000000000804040B8
:1059B00080000080000000000001010000000000E5
:1059C00000000000002F0000000007000700001486
:1059D0007F147F1400242A7F2A1200231308646294
:1059E00000364955225000000007000000001C222C
:1059F0004100000041221C000014083E0814000869
:105A0000083E0808000000A0600000080808080818
:105A1000000060600000002010080402003E5149B0
:105A2000453E0000427F400000426151494600214E
:105A300041454B31001814127F1000274545453968
:105A4000003C4A49493000017109050300364949C3
:105A5000493600064949291E00003636000000007C
:105A600056360000000814224100001414141414C7
:105A7000000041221408000201510906003E495568
:105A8000592E007C1211127C007F49494936003E94
:105A900041414122007F4141221C007F4949494147
:105AA000007F09090901003E4149497A007F080841
:105AB000087F0000417F4100002040413F01007FFE
:105AC00008142241007F40404040007F020C027FCA
:105AD000007F0408107F003E4141413E007F0909DC
